{
	"contracts/lottery.sol": {
		"Lottery": {
			"abi": [
				{
					"inputs": [],
					"stateMutability": "nonpayable",
					"type": "constructor"
				},
				{
					"anonymous": false,
					"inputs": [
						{
							"indexed": false,
							"internalType": "address",
							"name": "Winner",
							"type": "address"
						}
					],
					"name": "Declare_winner",
					"type": "event"
				},
				{
					"inputs": [],
					"name": "Manager",
					"outputs": [
						{
							"internalType": "address",
							"name": "",
							"type": "address"
						}
					],
					"stateMutability": "view",
					"type": "function"
				},
				{
					"inputs": [
						{
							"internalType": "uint256",
							"name": "",
							"type": "uint256"
						}
					],
					"name": "Participant",
					"outputs": [
						{
							"internalType": "address payable",
							"name": "",
							"type": "address"
						}
					],
					"stateMutability": "view",
					"type": "function"
				},
				{
					"inputs": [],
					"name": "Participants",
					"outputs": [
						{
							"internalType": "uint256",
							"name": "",
							"type": "uint256"
						}
					],
					"stateMutability": "view",
					"type": "function"
				},
				{
					"inputs": [],
					"name": "SelectWinner",
					"outputs": [
						{
							"internalType": "address",
							"name": "",
							"type": "address"
						}
					],
					"stateMutability": "nonpayable",
					"type": "function"
				},
				{
					"inputs": [],
					"name": "execution",
					"outputs": [
						{
							"internalType": "bool",
							"name": "",
							"type": "bool"
						}
					],
					"stateMutability": "view",
					"type": "function"
				},
				{
					"inputs": [],
					"name": "generate_profit",
					"outputs": [
						{
							"internalType": "uint256",
							"name": "",
							"type": "uint256"
						}
					],
					"stateMutability": "nonpayable",
					"type": "function"
				},
				{
					"inputs": [],
					"name": "getbalance",
					"outputs": [
						{
							"internalType": "uint256",
							"name": "",
							"type": "uint256"
						}
					],
					"stateMutability": "view",
					"type": "function"
				},
				{
					"inputs": [],
					"name": "random",
					"outputs": [
						{
							"internalType": "address payable",
							"name": "",
							"type": "address"
						}
					],
					"stateMutability": "view",
					"type": "function"
				},
				{
					"stateMutability": "payable",
					"type": "receive"
				}
			],
			"devdoc": {
				"kind": "dev",
				"methods": {},
				"version": 1
			},
			"evm": {
				"assembly": "    /* \"contracts/lottery.sol\":71:4225  contract Lottery{... */\n  mstore(0x40, 0x80)\n    /* \"contracts/lottery.sol\":397:763  constructor(){... */\n  callvalue\n  dup1\n  iszero\n  tag_1\n  jumpi\n  0x00\n  dup1\n  revert\ntag_1:\n  pop\n    /* \"contracts/lottery.sol\":428:438  msg.sender */\n  caller\n    /* \"contracts/lottery.sol\":420:427  Manager */\n  0x00\n  dup1\n    /* \"contracts/lottery.sol\":420:438  Manager=msg.sender */\n  0x0100\n  exp\n  dup2\n  sload\n  dup2\n  0xffffffffffffffffffffffffffffffffffffffff\n  mul\n  not\n  and\n  swap1\n  dup4\n  0xffffffffffffffffffffffffffffffffffffffff\n  and\n  mul\n  or\n  swap1\n  sstore\n  pop\n    /* \"contracts/lottery.sol\":71:4225  contract Lottery{... */\n  dataSize(sub_0)\n  dup1\n  dataOffset(sub_0)\n  0x00\n  codecopy\n  0x00\n  return\nstop\n\nsub_0: assembly {\n        /* \"contracts/lottery.sol\":71:4225  contract Lottery{... */\n      mstore(0x40, 0x80)\n      jumpi(tag_1, lt(calldatasize, 0x04))\n      shr(0xe0, calldataload(0x00))\n      dup1\n      0x5ec01e4d\n      gt\n      tag_11\n      jumpi\n      dup1\n      0x5ec01e4d\n      eq\n      tag_7\n      jumpi\n      dup1\n      0x78357e53\n      eq\n      tag_8\n      jumpi\n      dup1\n      0x7f244dd3\n      eq\n      tag_9\n      jumpi\n      dup1\n      0xbee09890\n      eq\n      tag_10\n      jumpi\n      jump(tag_2)\n    tag_11:\n      dup1\n      0x13c170f2\n      eq\n      tag_3\n      jumpi\n      dup1\n      0x3bb0359a\n      eq\n      tag_4\n      jumpi\n      dup1\n      0x4918f569\n      eq\n      tag_5\n      jumpi\n      dup1\n      0x4d9b3d5d\n      eq\n      tag_6\n      jumpi\n      jump(tag_2)\n    tag_1:\n      jumpi(tag_2, calldatasize)\n        /* \"contracts/lottery.sol\":1124:1131  2 ether */\n      0x1bc16d674ec80000\n        /* \"contracts/lottery.sol\":1113:1122  msg.value */\n      callvalue\n        /* \"contracts/lottery.sol\":1113:1131  msg.value==2 ether */\n      eq\n        /* \"contracts/lottery.sol\":1105:1156  require(msg.value==2 ether,\"Kya re aee bhikmangya\") */\n      tag_14\n      jumpi\n      mload(0x40)\n      0x08c379a000000000000000000000000000000000000000000000000000000000\n      dup2\n      mstore\n      0x04\n      add\n      tag_15\n      swap1\n      tag_16\n      jump\t// in\n    tag_15:\n      mload(0x40)\n      dup1\n      swap2\n      sub\n      swap1\n      revert\n    tag_14:\n        /* \"contracts/lottery.sol\":1166:1177  Participant */\n      0x01\n        /* \"contracts/lottery.sol\":1191:1201  msg.sender */\n      caller\n        /* \"contracts/lottery.sol\":1166:1203  Participant.push(payable(msg.sender)) */\n      swap1\n      dup1\n      0x01\n      dup2\n      sload\n      add\n      dup1\n      dup3\n      sstore\n      dup1\n      swap2\n      pop\n      pop\n      0x01\n      swap1\n      sub\n      swap1\n      0x00\n      mstore\n      keccak256(0x00, 0x20)\n      add\n      0x00\n      swap1\n      swap2\n      swap1\n      swap2\n      swap1\n      swap2\n      0x0100\n      exp\n      dup2\n      sload\n      dup2\n      0xffffffffffffffffffffffffffffffffffffffff\n      mul\n      not\n      and\n      swap1\n      dup4\n      0xffffffffffffffffffffffffffffffffffffffff\n      and\n      mul\n      or\n      swap1\n      sstore\n      pop\n        /* \"contracts/lottery.sol\":71:4225  contract Lottery{... */\n      stop\n    tag_2:\n      0x00\n      dup1\n      revert\n        /* \"contracts/lottery.sol\":3773:4218  function generate_profit() public onlyOwner returns(uint256){... */\n    tag_3:\n      callvalue\n      dup1\n      iszero\n      tag_18\n      jumpi\n      0x00\n      dup1\n      revert\n    tag_18:\n      pop\n      tag_19\n      tag_20\n      jump\t// in\n    tag_19:\n      mload(0x40)\n      tag_21\n      swap2\n      swap1\n      tag_22\n      jump\t// in\n    tag_21:\n      mload(0x40)\n      dup1\n      swap2\n      sub\n      swap1\n      return\n        /* \"contracts/lottery.sol\":159:195  address payable[] public Participant */\n    tag_4:\n      callvalue\n      dup1\n      iszero\n      tag_23\n      jumpi\n      0x00\n      dup1\n      revert\n    tag_23:\n      pop\n      tag_24\n      0x04\n      dup1\n      calldatasize\n      sub\n      dup2\n      add\n      swap1\n      tag_25\n      swap2\n      swap1\n      tag_26\n      jump\t// in\n    tag_25:\n      tag_27\n      jump\t// in\n    tag_24:\n      mload(0x40)\n      tag_28\n      swap2\n      swap1\n      tag_29\n      jump\t// in\n    tag_28:\n      mload(0x40)\n      dup1\n      swap2\n      sub\n      swap1\n      return\n        /* \"contracts/lottery.sol\":201:222  bool public execution */\n    tag_5:\n      callvalue\n      dup1\n      iszero\n      tag_30\n      jumpi\n      0x00\n      dup1\n      revert\n    tag_30:\n      pop\n      tag_31\n      tag_32\n      jump\t// in\n    tag_31:\n      mload(0x40)\n      tag_33\n      swap2\n      swap1\n      tag_34\n      jump\t// in\n    tag_33:\n      mload(0x40)\n      dup1\n      swap2\n      sub\n      swap1\n      return\n        /* \"contracts/lottery.sol\":1782:2327  function getbalance() public view onlyOwner returns(uint){... */\n    tag_6:\n      callvalue\n      dup1\n      iszero\n      tag_35\n      jumpi\n      0x00\n      dup1\n      revert\n    tag_35:\n      pop\n      tag_36\n      tag_37\n      jump\t// in\n    tag_36:\n      mload(0x40)\n      tag_38\n      swap2\n      swap1\n      tag_22\n      jump\t// in\n    tag_38:\n      mload(0x40)\n      dup1\n      swap2\n      sub\n      swap1\n      return\n        /* \"contracts/lottery.sol\":2376:3119  function random() public view onlyOwner returns(address payable){... */\n    tag_7:\n      callvalue\n      dup1\n      iszero\n      tag_39\n      jumpi\n      0x00\n      dup1\n      revert\n    tag_39:\n      pop\n      tag_40\n      tag_41\n      jump\t// in\n    tag_40:\n      mload(0x40)\n      tag_42\n      swap2\n      swap1\n      tag_29\n      jump\t// in\n    tag_42:\n      mload(0x40)\n      dup1\n      swap2\n      sub\n      swap1\n      return\n        /* \"contracts/lottery.sol\":93:115  address public Manager */\n    tag_8:\n      callvalue\n      dup1\n      iszero\n      tag_43\n      jumpi\n      0x00\n      dup1\n      revert\n    tag_43:\n      pop\n      tag_44\n      tag_45\n      jump\t// in\n    tag_44:\n      mload(0x40)\n      tag_46\n      swap2\n      swap1\n      tag_47\n      jump\t// in\n    tag_46:\n      mload(0x40)\n      dup1\n      swap2\n      sub\n      swap1\n      return\n        /* \"contracts/lottery.sol\":1685:1776  function Participants() public view returns(uint){... */\n    tag_9:\n      callvalue\n      dup1\n      iszero\n      tag_48\n      jumpi\n      0x00\n      dup1\n      revert\n    tag_48:\n      pop\n      tag_49\n      tag_50\n      jump\t// in\n    tag_49:\n      mload(0x40)\n      tag_51\n      swap2\n      swap1\n      tag_22\n      jump\t// in\n    tag_51:\n      mload(0x40)\n      dup1\n      swap2\n      sub\n      swap1\n      return\n        /* \"contracts/lottery.sol\":3265:3762  function SelectWinner() public  onlyOwner returns(address){... */\n    tag_10:\n      callvalue\n      dup1\n      iszero\n      tag_52\n      jumpi\n      0x00\n      dup1\n      revert\n    tag_52:\n      pop\n      tag_53\n      tag_54\n      jump\t// in\n    tag_53:\n      mload(0x40)\n      tag_55\n      swap2\n      swap1\n      tag_47\n      jump\t// in\n    tag_55:\n      mload(0x40)\n      dup1\n      swap2\n      sub\n      swap1\n      return\n        /* \"contracts/lottery.sol\":3773:4218  function generate_profit() public onlyOwner returns(uint256){... */\n    tag_20:\n        /* \"contracts/lottery.sol\":3825:3832  uint256 */\n      0x00\n        /* \"contracts/lottery.sol\":3190:3197  Manager */\n      dup1\n      0x00\n      swap1\n      sload\n      swap1\n      0x0100\n      exp\n      swap1\n      div\n      0xffffffffffffffffffffffffffffffffffffffff\n      and\n        /* \"contracts/lottery.sol\":3176:3197  msg.sender == Manager */\n      0xffffffffffffffffffffffffffffffffffffffff\n      and\n        /* \"contracts/lottery.sol\":3176:3186  msg.sender */\n      caller\n        /* \"contracts/lottery.sol\":3176:3197  msg.sender == Manager */\n      0xffffffffffffffffffffffffffffffffffffffff\n      and\n      eq\n        /* \"contracts/lottery.sol\":3168:3230  require(msg.sender == Manager,'Only The Manager can do this ') */\n      tag_57\n      jumpi\n      mload(0x40)\n      0x08c379a000000000000000000000000000000000000000000000000000000000\n      dup2\n      mstore\n      0x04\n      add\n      tag_58\n      swap1\n      tag_59\n      jump\t// in\n    tag_58:\n      mload(0x40)\n      dup1\n      swap2\n      sub\n      swap1\n      revert\n    tag_57:\n        /* \"contracts/lottery.sol\":3855:3864  execution */\n      0x02\n      0x00\n      swap1\n      sload\n      swap1\n      0x0100\n      exp\n      swap1\n      div\n      0xff\n      and\n        /* \"contracts/lottery.sol\":3847:3902  require(execution,'firstly you have to declare winner') */\n      tag_61\n      jumpi\n      mload(0x40)\n      0x08c379a000000000000000000000000000000000000000000000000000000000\n      dup2\n      mstore\n      0x04\n      add\n      tag_62\n      swap1\n      tag_63\n      jump\t// in\n    tag_62:\n      mload(0x40)\n      dup1\n      swap2\n      sub\n      swap1\n      revert\n    tag_61:\n        /* \"contracts/lottery.sol\":3917:3940  uint256 contractBalance */\n      0x00\n        /* \"contracts/lottery.sol\":3941:3962  address(this).balance */\n      selfbalance\n        /* \"contracts/lottery.sol\":3917:3962  uint256 contractBalance=address(this).balance */\n      swap1\n      pop\n        /* \"contracts/lottery.sol\":4000:4007  1 ether */\n      0x0de0b6b3a7640000\n        /* \"contracts/lottery.sol\":3983:3998  contractBalance */\n      dup2\n        /* \"contracts/lottery.sol\":3983:4007  contractBalance==1 ether */\n      eq\n        /* \"contracts/lottery.sol\":3975:4029  require(contractBalance==1 ether,'No balance is left') */\n      tag_64\n      jumpi\n      mload(0x40)\n      0x08c379a000000000000000000000000000000000000000000000000000000000\n      dup2\n      mstore\n      0x04\n      add\n      tag_65\n      swap1\n      tag_66\n      jump\t// in\n    tag_65:\n      mload(0x40)\n      dup1\n      swap2\n      sub\n      swap1\n      revert\n    tag_64:\n        /* \"contracts/lottery.sol\":4051:4063  bool Success */\n      0x00\n        /* \"contracts/lottery.sol\":4066:4073  Manager */\n      dup1\n      0x00\n      swap1\n      sload\n      swap1\n      0x0100\n      exp\n      swap1\n      div\n      0xffffffffffffffffffffffffffffffffffffffff\n      and\n        /* \"contracts/lottery.sol\":4066:4078  Manager.call */\n      0xffffffffffffffffffffffffffffffffffffffff\n      and\n        /* \"contracts/lottery.sol\":4087:4102  contractBalance */\n      dup3\n        /* \"contracts/lottery.sol\":4066:4108  Manager.call { value:contractBalance} (\"\") */\n      mload(0x40)\n      tag_67\n      swap1\n      tag_68\n      jump\t// in\n    tag_67:\n      0x00\n      mload(0x40)\n      dup1\n      dup4\n      sub\n      dup2\n      dup6\n      dup8\n      gas\n      call\n      swap3\n      pop\n      pop\n      pop\n      returndatasize\n      dup1\n      0x00\n      dup2\n      eq\n      tag_71\n      jumpi\n      mload(0x40)\n      swap2\n      pop\n      and(add(returndatasize, 0x3f), not(0x1f))\n      dup3\n      add\n      0x40\n      mstore\n      returndatasize\n      dup3\n      mstore\n      returndatasize\n      0x00\n      0x20\n      dup5\n      add\n      returndatacopy\n      jump(tag_70)\n    tag_71:\n      0x60\n      swap2\n      pop\n    tag_70:\n      pop\n        /* \"contracts/lottery.sol\":4050:4108  (bool Success,)=Manager.call { value:contractBalance} (\"\") */\n      pop\n      swap1\n      pop\n        /* \"contracts/lottery.sol\":4126:4133  Success */\n      dup1\n        /* \"contracts/lottery.sol\":4118:4163  require(Success,\"Transfer to manager failed\") */\n      tag_72\n      jumpi\n      mload(0x40)\n      0x08c379a000000000000000000000000000000000000000000000000000000000\n      dup2\n      mstore\n      0x04\n      add\n      tag_73\n      swap1\n      tag_74\n      jump\t// in\n    tag_73:\n      mload(0x40)\n      dup1\n      swap2\n      sub\n      swap1\n      revert\n    tag_72:\n        /* \"contracts/lottery.sol\":4186:4201  contractBalance */\n      dup2\n        /* \"contracts/lottery.sol\":4179:4201  return contractBalance */\n      swap3\n      pop\n      pop\n      pop\n        /* \"contracts/lottery.sol\":3773:4218  function generate_profit() public onlyOwner returns(uint256){... */\n      swap1\n      jump\t// out\n        /* \"contracts/lottery.sol\":159:195  address payable[] public Participant */\n    tag_27:\n      0x01\n      dup2\n      dup2\n      sload\n      dup2\n      lt\n      tag_75\n      jumpi\n      0x00\n      dup1\n      revert\n    tag_75:\n      swap1\n      0x00\n      mstore\n      keccak256(0x00, 0x20)\n      add\n      0x00\n      swap2\n      pop\n      sload\n      swap1\n      0x0100\n      exp\n      swap1\n      div\n      0xffffffffffffffffffffffffffffffffffffffff\n      and\n      dup2\n      jump\t// out\n        /* \"contracts/lottery.sol\":201:222  bool public execution */\n    tag_32:\n      0x02\n      0x00\n      swap1\n      sload\n      swap1\n      0x0100\n      exp\n      swap1\n      div\n      0xff\n      and\n      dup2\n      jump\t// out\n        /* \"contracts/lottery.sol\":1782:2327  function getbalance() public view onlyOwner returns(uint){... */\n    tag_37:\n        /* \"contracts/lottery.sol\":1834:1838  uint */\n      0x00\n        /* \"contracts/lottery.sol\":3190:3197  Manager */\n      dup1\n      0x00\n      swap1\n      sload\n      swap1\n      0x0100\n      exp\n      swap1\n      div\n      0xffffffffffffffffffffffffffffffffffffffff\n      and\n        /* \"contracts/lottery.sol\":3176:3197  msg.sender == Manager */\n      0xffffffffffffffffffffffffffffffffffffffff\n      and\n        /* \"contracts/lottery.sol\":3176:3186  msg.sender */\n      caller\n        /* \"contracts/lottery.sol\":3176:3197  msg.sender == Manager */\n      0xffffffffffffffffffffffffffffffffffffffff\n      and\n      eq\n        /* \"contracts/lottery.sol\":3168:3230  require(msg.sender == Manager,'Only The Manager can do this ') */\n      tag_78\n      jumpi\n      mload(0x40)\n      0x08c379a000000000000000000000000000000000000000000000000000000000\n      dup2\n      mstore\n      0x04\n      add\n      tag_79\n      swap1\n      tag_59\n      jump\t// in\n    tag_79:\n      mload(0x40)\n      dup1\n      swap2\n      sub\n      swap1\n      revert\n    tag_78:\n        /* \"contracts/lottery.sol\":2055:2076  address(this).balance */\n      selfbalance\n        /* \"contracts/lottery.sol\":2048:2076  return address(this).balance */\n      swap1\n      pop\n        /* \"contracts/lottery.sol\":1782:2327  function getbalance() public view onlyOwner returns(uint){... */\n      swap1\n      jump\t// out\n        /* \"contracts/lottery.sol\":2376:3119  function random() public view onlyOwner returns(address payable){... */\n    tag_41:\n        /* \"contracts/lottery.sol\":2424:2439  address payable */\n      0x00\n        /* \"contracts/lottery.sol\":3190:3197  Manager */\n      dup1\n      0x00\n      swap1\n      sload\n      swap1\n      0x0100\n      exp\n      swap1\n      div\n      0xffffffffffffffffffffffffffffffffffffffff\n      and\n        /* \"contracts/lottery.sol\":3176:3197  msg.sender == Manager */\n      0xffffffffffffffffffffffffffffffffffffffff\n      and\n        /* \"contracts/lottery.sol\":3176:3186  msg.sender */\n      caller\n        /* \"contracts/lottery.sol\":3176:3197  msg.sender == Manager */\n      0xffffffffffffffffffffffffffffffffffffffff\n      and\n      eq\n        /* \"contracts/lottery.sol\":3168:3230  require(msg.sender == Manager,'Only The Manager can do this ') */\n      tag_82\n      jumpi\n      mload(0x40)\n      0x08c379a000000000000000000000000000000000000000000000000000000000\n      dup2\n      mstore\n      0x04\n      add\n      tag_83\n      swap1\n      tag_59\n      jump\t// in\n    tag_83:\n      mload(0x40)\n      dup1\n      swap2\n      sub\n      swap1\n      revert\n    tag_82:\n        /* \"contracts/lottery.sol\":2451:2467  uint256 randomno */\n      0x00\n        /* \"contracts/lottery.sol\":2497:2513  block.difficulty */\n      difficulty\n        /* \"contracts/lottery.sol\":2514:2529  block.timestamp */\n      timestamp\n        /* \"contracts/lottery.sol\":2530:2541  Participant */\n      0x01\n        /* \"contracts/lottery.sol\":2530:2548  Participant.length */\n      dup1\n      sload\n      swap1\n      pop\n        /* \"contracts/lottery.sol\":2486:2549  abi.encode(block.difficulty,block.timestamp,Participant.length) */\n      add(0x20, mload(0x40))\n      tag_85\n      swap4\n      swap3\n      swap2\n      swap1\n      tag_86\n      jump\t// in\n    tag_85:\n      mload(0x40)\n      0x20\n      dup2\n      dup4\n      sub\n      sub\n      dup2\n      mstore\n      swap1\n      0x40\n      mstore\n        /* \"contracts/lottery.sol\":2476:2550  keccak256(abi.encode(block.difficulty,block.timestamp,Participant.length)) */\n      dup1\n      mload\n      swap1\n      0x20\n      add\n      keccak256\n        /* \"contracts/lottery.sol\":2468:2551  uint256(keccak256(abi.encode(block.difficulty,block.timestamp,Participant.length))) */\n      0x00\n      shr\n        /* \"contracts/lottery.sol\":2451:2551  uint256 randomno=uint256(keccak256(abi.encode(block.difficulty,block.timestamp,Participant.length))) */\n      swap1\n      pop\n        /* \"contracts/lottery.sol\":2990:3012  address payable Winner */\n      0x00\n        /* \"contracts/lottery.sol\":3015:3026  Participant */\n      0x01\n        /* \"contracts/lottery.sol\":3038:3049  Participant */\n      dup1\n        /* \"contracts/lottery.sol\":3038:3056  Participant.length */\n      dup1\n      sload\n      swap1\n      pop\n        /* \"contracts/lottery.sol\":3027:3035  randomno */\n      dup4\n        /* \"contracts/lottery.sol\":3027:3056  randomno % Participant.length */\n      tag_87\n      swap2\n      swap1\n      tag_88\n      jump\t// in\n    tag_87:\n        /* \"contracts/lottery.sol\":3015:3057  Participant[randomno % Participant.length] */\n      dup2\n      sload\n      dup2\n      lt\n      tag_89\n      jumpi\n      tag_90\n      tag_91\n      jump\t// in\n    tag_90:\n    tag_89:\n      swap1\n      0x00\n      mstore\n      keccak256(0x00, 0x20)\n      add\n      0x00\n      swap1\n      sload\n      swap1\n      0x0100\n      exp\n      swap1\n      div\n      0xffffffffffffffffffffffffffffffffffffffff\n      and\n        /* \"contracts/lottery.sol\":2990:3057  address payable Winner = Participant[randomno % Participant.length] */\n      swap1\n      pop\n        /* \"contracts/lottery.sol\":3085:3091  Winner */\n      dup1\n        /* \"contracts/lottery.sol\":3078:3091  return Winner */\n      swap3\n      pop\n      pop\n      pop\n        /* \"contracts/lottery.sol\":2376:3119  function random() public view onlyOwner returns(address payable){... */\n      swap1\n      jump\t// out\n        /* \"contracts/lottery.sol\":93:115  address public Manager */\n    tag_45:\n      0x00\n      dup1\n      sload\n      swap1\n      0x0100\n      exp\n      swap1\n      div\n      0xffffffffffffffffffffffffffffffffffffffff\n      and\n      dup2\n      jump\t// out\n        /* \"contracts/lottery.sol\":1685:1776  function Participants() public view returns(uint){... */\n    tag_50:\n        /* \"contracts/lottery.sol\":1729:1733  uint */\n      0x00\n        /* \"contracts/lottery.sol\":1751:1762  Participant */\n      0x01\n        /* \"contracts/lottery.sol\":1751:1769  Participant.length */\n      dup1\n      sload\n      swap1\n      pop\n        /* \"contracts/lottery.sol\":1744:1769  return Participant.length */\n      swap1\n      pop\n        /* \"contracts/lottery.sol\":1685:1776  function Participants() public view returns(uint){... */\n      swap1\n      jump\t// out\n        /* \"contracts/lottery.sol\":3265:3762  function SelectWinner() public  onlyOwner returns(address){... */\n    tag_54:\n        /* \"contracts/lottery.sol\":3315:3322  address */\n      0x00\n        /* \"contracts/lottery.sol\":3190:3197  Manager */\n      dup1\n      0x00\n      swap1\n      sload\n      swap1\n      0x0100\n      exp\n      swap1\n      div\n      0xffffffffffffffffffffffffffffffffffffffff\n      and\n        /* \"contracts/lottery.sol\":3176:3197  msg.sender == Manager */\n      0xffffffffffffffffffffffffffffffffffffffff\n      and\n        /* \"contracts/lottery.sol\":3176:3186  msg.sender */\n      caller\n        /* \"contracts/lottery.sol\":3176:3197  msg.sender == Manager */\n      0xffffffffffffffffffffffffffffffffffffffff\n      and\n      eq\n        /* \"contracts/lottery.sol\":3168:3230  require(msg.sender == Manager,'Only The Manager can do this ') */\n      tag_95\n      jumpi\n      mload(0x40)\n      0x08c379a000000000000000000000000000000000000000000000000000000000\n      dup2\n      mstore\n      0x04\n      add\n      tag_96\n      swap1\n      tag_59\n      jump\t// in\n    tag_96:\n      mload(0x40)\n      dup1\n      swap2\n      sub\n      swap1\n      revert\n    tag_95:\n        /* \"contracts/lottery.sol\":3360:3361  0 */\n      0x00\n        /* \"contracts/lottery.sol\":3341:3352  Participant */\n      0x01\n        /* \"contracts/lottery.sol\":3341:3359  Participant.length */\n      dup1\n      sload\n      swap1\n      pop\n        /* \"contracts/lottery.sol\":3341:3361  Participant.length>0 */\n      gt\n        /* \"contracts/lottery.sol\":3333:3362  require(Participant.length>0) */\n      tag_98\n      jumpi\n      0x00\n      dup1\n      revert\n    tag_98:\n        /* \"contracts/lottery.sol\":3378:3401  uint256 contractBalance */\n      0x00\n        /* \"contracts/lottery.sol\":3403:3424  address(this).balance */\n      selfbalance\n        /* \"contracts/lottery.sol\":3378:3424  uint256 contractBalance= address(this).balance */\n      swap1\n      pop\n        /* \"contracts/lottery.sol\":3435:3454  address finalWinner */\n      0x00\n        /* \"contracts/lottery.sol\":3457:3465  random() */\n      tag_99\n        /* \"contracts/lottery.sol\":3457:3463  random */\n      tag_41\n        /* \"contracts/lottery.sol\":3457:3465  random() */\n      jump\t// in\n    tag_99:\n        /* \"contracts/lottery.sol\":3435:3465  address finalWinner = random() */\n      swap1\n      pop\n        /* \"contracts/lottery.sol\":3506:3507  0 */\n      0x00\n        /* \"contracts/lottery.sol\":3490:3505  contractBalance */\n      dup3\n        /* \"contracts/lottery.sol\":3490:3507  contractBalance>0 */\n      gt\n        /* \"contracts/lottery.sol\":3482:3535  require(contractBalance>0,'Contract balance is Zero') */\n      tag_100\n      jumpi\n      mload(0x40)\n      0x08c379a000000000000000000000000000000000000000000000000000000000\n      dup2\n      mstore\n      0x04\n      add\n      tag_101\n      swap1\n      tag_102\n      jump\t// in\n    tag_101:\n      mload(0x40)\n      dup1\n      swap2\n      sub\n      swap1\n      revert\n    tag_100:\n        /* \"contracts/lottery.sol\":3553:3565  bool Success */\n      0x00\n        /* \"contracts/lottery.sol\":3568:3579  finalWinner */\n      dup2\n        /* \"contracts/lottery.sol\":3568:3584  finalWinner.call */\n      0xffffffffffffffffffffffffffffffffffffffff\n      and\n        /* \"contracts/lottery.sol\":3609:3616  1 ether */\n      0x0de0b6b3a7640000\n        /* \"contracts/lottery.sol\":3593:3608  contractBalance */\n      dup5\n        /* \"contracts/lottery.sol\":3593:3616  contractBalance-1 ether */\n      tag_103\n      swap2\n      swap1\n      tag_104\n      jump\t// in\n    tag_103:\n        /* \"contracts/lottery.sol\":3568:3622  finalWinner.call { value:contractBalance-1 ether} (\"\") */\n      mload(0x40)\n      tag_105\n      swap1\n      tag_68\n      jump\t// in\n    tag_105:\n      0x00\n      mload(0x40)\n      dup1\n      dup4\n      sub\n      dup2\n      dup6\n      dup8\n      gas\n      call\n      swap3\n      pop\n      pop\n      pop\n      returndatasize\n      dup1\n      0x00\n      dup2\n      eq\n      tag_108\n      jumpi\n      mload(0x40)\n      swap2\n      pop\n      and(add(returndatasize, 0x3f), not(0x1f))\n      dup3\n      add\n      0x40\n      mstore\n      returndatasize\n      dup3\n      mstore\n      returndatasize\n      0x00\n      0x20\n      dup5\n      add\n      returndatacopy\n      jump(tag_107)\n    tag_108:\n      0x60\n      swap2\n      pop\n    tag_107:\n      pop\n        /* \"contracts/lottery.sol\":3552:3622  (bool Success,)=finalWinner.call { value:contractBalance-1 ether} (\"\") */\n      pop\n      swap1\n      pop\n        /* \"contracts/lottery.sol\":3649:3656  Success */\n      dup1\n        /* \"contracts/lottery.sol\":3641:3685  require(Success,\"Transfer to winner failed\") */\n      tag_109\n      jumpi\n      mload(0x40)\n      0x08c379a000000000000000000000000000000000000000000000000000000000\n      dup2\n      mstore\n      0x04\n      add\n      tag_110\n      swap1\n      tag_111\n      jump\t// in\n    tag_110:\n      mload(0x40)\n      dup1\n      swap2\n      sub\n      swap1\n      revert\n    tag_109:\n        /* \"contracts/lottery.sol\":3705:3709  true */\n      0x01\n        /* \"contracts/lottery.sol\":3695:3704  execution */\n      0x02\n      0x00\n        /* \"contracts/lottery.sol\":3695:3709  execution=true */\n      0x0100\n      exp\n      dup2\n      sload\n      dup2\n      0xff\n      mul\n      not\n      and\n      swap1\n      dup4\n      iszero\n      iszero\n      mul\n      or\n      swap1\n      sstore\n      pop\n        /* \"contracts/lottery.sol\":3726:3737  finalWinner */\n      dup2\n        /* \"contracts/lottery.sol\":3719:3737  return finalWinner */\n      swap4\n      pop\n      pop\n      pop\n      pop\n        /* \"contracts/lottery.sol\":3265:3762  function SelectWinner() public  onlyOwner returns(address){... */\n      swap1\n      jump\t// out\n        /* \"#utility.yul\":7:146   */\n    tag_113:\n        /* \"#utility.yul\":53:58   */\n      0x00\n        /* \"#utility.yul\":91:97   */\n      dup2\n        /* \"#utility.yul\":78:98   */\n      calldataload\n        /* \"#utility.yul\":69:98   */\n      swap1\n      pop\n        /* \"#utility.yul\":107:140   */\n      tag_115\n        /* \"#utility.yul\":134:139   */\n      dup2\n        /* \"#utility.yul\":107:140   */\n      tag_116\n      jump\t// in\n    tag_115:\n        /* \"#utility.yul\":7:146   */\n      swap3\n      swap2\n      pop\n      pop\n      jump\t// out\n        /* \"#utility.yul\":152:481   */\n    tag_26:\n        /* \"#utility.yul\":211:217   */\n      0x00\n        /* \"#utility.yul\":260:262   */\n      0x20\n        /* \"#utility.yul\":248:257   */\n      dup3\n        /* \"#utility.yul\":239:246   */\n      dup5\n        /* \"#utility.yul\":235:258   */\n      sub\n        /* \"#utility.yul\":231:263   */\n      slt\n        /* \"#utility.yul\":228:347   */\n      iszero\n      tag_118\n      jumpi\n        /* \"#utility.yul\":266:345   */\n      tag_119\n      tag_120\n      jump\t// in\n    tag_119:\n        /* \"#utility.yul\":228:347   */\n    tag_118:\n        /* \"#utility.yul\":386:387   */\n      0x00\n        /* \"#utility.yul\":411:464   */\n      tag_121\n        /* \"#utility.yul\":456:463   */\n      dup5\n        /* \"#utility.yul\":447:453   */\n      dup3\n        /* \"#utility.yul\":436:445   */\n      dup6\n        /* \"#utility.yul\":432:454   */\n      add\n        /* \"#utility.yul\":411:464   */\n      tag_113\n      jump\t// in\n    tag_121:\n        /* \"#utility.yul\":401:464   */\n      swap2\n      pop\n        /* \"#utility.yul\":357:474   */\n      pop\n        /* \"#utility.yul\":152:481   */\n      swap3\n      swap2\n      pop\n      pop\n      jump\t// out\n        /* \"#utility.yul\":487:629   */\n    tag_122:\n        /* \"#utility.yul\":590:622   */\n      tag_124\n        /* \"#utility.yul\":616:621   */\n      dup2\n        /* \"#utility.yul\":590:622   */\n      tag_125\n      jump\t// in\n    tag_124:\n        /* \"#utility.yul\":585:588   */\n      dup3\n        /* \"#utility.yul\":578:623   */\n      mstore\n        /* \"#utility.yul\":487:629   */\n      pop\n      pop\n      jump\t// out\n        /* \"#utility.yul\":635:753   */\n    tag_126:\n        /* \"#utility.yul\":722:746   */\n      tag_128\n        /* \"#utility.yul\":740:745   */\n      dup2\n        /* \"#utility.yul\":722:746   */\n      tag_129\n      jump\t// in\n    tag_128:\n        /* \"#utility.yul\":717:720   */\n      dup3\n        /* \"#utility.yul\":710:747   */\n      mstore\n        /* \"#utility.yul\":635:753   */\n      pop\n      pop\n      jump\t// out\n        /* \"#utility.yul\":759:868   */\n    tag_130:\n        /* \"#utility.yul\":840:861   */\n      tag_132\n        /* \"#utility.yul\":855:860   */\n      dup2\n        /* \"#utility.yul\":840:861   */\n      tag_133\n      jump\t// in\n    tag_132:\n        /* \"#utility.yul\":835:838   */\n      dup3\n        /* \"#utility.yul\":828:862   */\n      mstore\n        /* \"#utility.yul\":759:868   */\n      pop\n      pop\n      jump\t// out\n        /* \"#utility.yul\":874:1240   */\n    tag_134:\n        /* \"#utility.yul\":1016:1019   */\n      0x00\n        /* \"#utility.yul\":1037:1104   */\n      tag_136\n        /* \"#utility.yul\":1101:1103   */\n      0x19\n        /* \"#utility.yul\":1096:1099   */\n      dup4\n        /* \"#utility.yul\":1037:1104   */\n      tag_137\n      jump\t// in\n    tag_136:\n        /* \"#utility.yul\":1030:1104   */\n      swap2\n      pop\n        /* \"#utility.yul\":1113:1206   */\n      tag_138\n        /* \"#utility.yul\":1202:1205   */\n      dup3\n        /* \"#utility.yul\":1113:1206   */\n      tag_139\n      jump\t// in\n    tag_138:\n        /* \"#utility.yul\":1231:1233   */\n      0x20\n        /* \"#utility.yul\":1226:1229   */\n      dup3\n        /* \"#utility.yul\":1222:1234   */\n      add\n        /* \"#utility.yul\":1215:1234   */\n      swap1\n      pop\n        /* \"#utility.yul\":874:1240   */\n      swap2\n      swap1\n      pop\n      jump\t// out\n        /* \"#utility.yul\":1246:1612   */\n    tag_140:\n        /* \"#utility.yul\":1388:1391   */\n      0x00\n        /* \"#utility.yul\":1409:1476   */\n      tag_142\n        /* \"#utility.yul\":1473:1475   */\n      0x12\n        /* \"#utility.yul\":1468:1471   */\n      dup4\n        /* \"#utility.yul\":1409:1476   */\n      tag_137\n      jump\t// in\n    tag_142:\n        /* \"#utility.yul\":1402:1476   */\n      swap2\n      pop\n        /* \"#utility.yul\":1485:1578   */\n      tag_143\n        /* \"#utility.yul\":1574:1577   */\n      dup3\n        /* \"#utility.yul\":1485:1578   */\n      tag_144\n      jump\t// in\n    tag_143:\n        /* \"#utility.yul\":1603:1605   */\n      0x20\n        /* \"#utility.yul\":1598:1601   */\n      dup3\n        /* \"#utility.yul\":1594:1606   */\n      add\n        /* \"#utility.yul\":1587:1606   */\n      swap1\n      pop\n        /* \"#utility.yul\":1246:1612   */\n      swap2\n      swap1\n      pop\n      jump\t// out\n        /* \"#utility.yul\":1618:1984   */\n    tag_145:\n        /* \"#utility.yul\":1760:1763   */\n      0x00\n        /* \"#utility.yul\":1781:1848   */\n      tag_147\n        /* \"#utility.yul\":1845:1847   */\n      0x22\n        /* \"#utility.yul\":1840:1843   */\n      dup4\n        /* \"#utility.yul\":1781:1848   */\n      tag_137\n      jump\t// in\n    tag_147:\n        /* \"#utility.yul\":1774:1848   */\n      swap2\n      pop\n        /* \"#utility.yul\":1857:1950   */\n      tag_148\n        /* \"#utility.yul\":1946:1949   */\n      dup3\n        /* \"#utility.yul\":1857:1950   */\n      tag_149\n      jump\t// in\n    tag_148:\n        /* \"#utility.yul\":1975:1977   */\n      0x40\n        /* \"#utility.yul\":1970:1973   */\n      dup3\n        /* \"#utility.yul\":1966:1978   */\n      add\n        /* \"#utility.yul\":1959:1978   */\n      swap1\n      pop\n        /* \"#utility.yul\":1618:1984   */\n      swap2\n      swap1\n      pop\n      jump\t// out\n        /* \"#utility.yul\":1990:2356   */\n    tag_150:\n        /* \"#utility.yul\":2132:2135   */\n      0x00\n        /* \"#utility.yul\":2153:2220   */\n      tag_152\n        /* \"#utility.yul\":2217:2219   */\n      0x1d\n        /* \"#utility.yul\":2212:2215   */\n      dup4\n        /* \"#utility.yul\":2153:2220   */\n      tag_137\n      jump\t// in\n    tag_152:\n        /* \"#utility.yul\":2146:2220   */\n      swap2\n      pop\n        /* \"#utility.yul\":2229:2322   */\n      tag_153\n        /* \"#utility.yul\":2318:2321   */\n      dup3\n        /* \"#utility.yul\":2229:2322   */\n      tag_154\n      jump\t// in\n    tag_153:\n        /* \"#utility.yul\":2347:2349   */\n      0x20\n        /* \"#utility.yul\":2342:2345   */\n      dup3\n        /* \"#utility.yul\":2338:2350   */\n      add\n        /* \"#utility.yul\":2331:2350   */\n      swap1\n      pop\n        /* \"#utility.yul\":1990:2356   */\n      swap2\n      swap1\n      pop\n      jump\t// out\n        /* \"#utility.yul\":2362:2728   */\n    tag_155:\n        /* \"#utility.yul\":2504:2507   */\n      0x00\n        /* \"#utility.yul\":2525:2592   */\n      tag_157\n        /* \"#utility.yul\":2589:2591   */\n      0x15\n        /* \"#utility.yul\":2584:2587   */\n      dup4\n        /* \"#utility.yul\":2525:2592   */\n      tag_137\n      jump\t// in\n    tag_157:\n        /* \"#utility.yul\":2518:2592   */\n      swap2\n      pop\n        /* \"#utility.yul\":2601:2694   */\n      tag_158\n        /* \"#utility.yul\":2690:2693   */\n      dup3\n        /* \"#utility.yul\":2601:2694   */\n      tag_159\n      jump\t// in\n    tag_158:\n        /* \"#utility.yul\":2719:2721   */\n      0x20\n        /* \"#utility.yul\":2714:2717   */\n      dup3\n        /* \"#utility.yul\":2710:2722   */\n      add\n        /* \"#utility.yul\":2703:2722   */\n      swap1\n      pop\n        /* \"#utility.yul\":2362:2728   */\n      swap2\n      swap1\n      pop\n      jump\t// out\n        /* \"#utility.yul\":2734:3100   */\n    tag_160:\n        /* \"#utility.yul\":2876:2879   */\n      0x00\n        /* \"#utility.yul\":2897:2964   */\n      tag_162\n        /* \"#utility.yul\":2961:2963   */\n      0x1a\n        /* \"#utility.yul\":2956:2959   */\n      dup4\n        /* \"#utility.yul\":2897:2964   */\n      tag_137\n      jump\t// in\n    tag_162:\n        /* \"#utility.yul\":2890:2964   */\n      swap2\n      pop\n        /* \"#utility.yul\":2973:3066   */\n      tag_163\n        /* \"#utility.yul\":3062:3065   */\n      dup3\n        /* \"#utility.yul\":2973:3066   */\n      tag_164\n      jump\t// in\n    tag_163:\n        /* \"#utility.yul\":3091:3093   */\n      0x20\n        /* \"#utility.yul\":3086:3089   */\n      dup3\n        /* \"#utility.yul\":3082:3094   */\n      add\n        /* \"#utility.yul\":3075:3094   */\n      swap1\n      pop\n        /* \"#utility.yul\":2734:3100   */\n      swap2\n      swap1\n      pop\n      jump\t// out\n        /* \"#utility.yul\":3106:3504   */\n    tag_165:\n        /* \"#utility.yul\":3265:3268   */\n      0x00\n        /* \"#utility.yul\":3286:3369   */\n      tag_167\n        /* \"#utility.yul\":3367:3368   */\n      0x00\n        /* \"#utility.yul\":3362:3365   */\n      dup4\n        /* \"#utility.yul\":3286:3369   */\n      tag_168\n      jump\t// in\n    tag_167:\n        /* \"#utility.yul\":3279:3369   */\n      swap2\n      pop\n        /* \"#utility.yul\":3378:3471   */\n      tag_169\n        /* \"#utility.yul\":3467:3470   */\n      dup3\n        /* \"#utility.yul\":3378:3471   */\n      tag_170\n      jump\t// in\n    tag_169:\n        /* \"#utility.yul\":3496:3497   */\n      0x00\n        /* \"#utility.yul\":3491:3494   */\n      dup3\n        /* \"#utility.yul\":3487:3498   */\n      add\n        /* \"#utility.yul\":3480:3498   */\n      swap1\n      pop\n        /* \"#utility.yul\":3106:3504   */\n      swap2\n      swap1\n      pop\n      jump\t// out\n        /* \"#utility.yul\":3510:3876   */\n    tag_171:\n        /* \"#utility.yul\":3652:3655   */\n      0x00\n        /* \"#utility.yul\":3673:3740   */\n      tag_173\n        /* \"#utility.yul\":3737:3739   */\n      0x18\n        /* \"#utility.yul\":3732:3735   */\n      dup4\n        /* \"#utility.yul\":3673:3740   */\n      tag_137\n      jump\t// in\n    tag_173:\n        /* \"#utility.yul\":3666:3740   */\n      swap2\n      pop\n        /* \"#utility.yul\":3749:3842   */\n      tag_174\n        /* \"#utility.yul\":3838:3841   */\n      dup3\n        /* \"#utility.yul\":3749:3842   */\n      tag_175\n      jump\t// in\n    tag_174:\n        /* \"#utility.yul\":3867:3869   */\n      0x20\n        /* \"#utility.yul\":3862:3865   */\n      dup3\n        /* \"#utility.yul\":3858:3870   */\n      add\n        /* \"#utility.yul\":3851:3870   */\n      swap1\n      pop\n        /* \"#utility.yul\":3510:3876   */\n      swap2\n      swap1\n      pop\n      jump\t// out\n        /* \"#utility.yul\":3882:4000   */\n    tag_176:\n        /* \"#utility.yul\":3969:3993   */\n      tag_178\n        /* \"#utility.yul\":3987:3992   */\n      dup2\n        /* \"#utility.yul\":3969:3993   */\n      tag_179\n      jump\t// in\n    tag_178:\n        /* \"#utility.yul\":3964:3967   */\n      dup3\n        /* \"#utility.yul\":3957:3994   */\n      mstore\n        /* \"#utility.yul\":3882:4000   */\n      pop\n      pop\n      jump\t// out\n        /* \"#utility.yul\":4006:4385   */\n    tag_68:\n        /* \"#utility.yul\":4190:4193   */\n      0x00\n        /* \"#utility.yul\":4212:4359   */\n      tag_181\n        /* \"#utility.yul\":4355:4358   */\n      dup3\n        /* \"#utility.yul\":4212:4359   */\n      tag_165\n      jump\t// in\n    tag_181:\n        /* \"#utility.yul\":4205:4359   */\n      swap2\n      pop\n        /* \"#utility.yul\":4376:4379   */\n      dup2\n        /* \"#utility.yul\":4369:4379   */\n      swap1\n      pop\n        /* \"#utility.yul\":4006:4385   */\n      swap2\n      swap1\n      pop\n      jump\t// out\n        /* \"#utility.yul\":4391:4613   */\n    tag_47:\n        /* \"#utility.yul\":4484:4488   */\n      0x00\n        /* \"#utility.yul\":4522:4524   */\n      0x20\n        /* \"#utility.yul\":4511:4520   */\n      dup3\n        /* \"#utility.yul\":4507:4525   */\n      add\n        /* \"#utility.yul\":4499:4525   */\n      swap1\n      pop\n        /* \"#utility.yul\":4535:4606   */\n      tag_183\n        /* \"#utility.yul\":4603:4604   */\n      0x00\n        /* \"#utility.yul\":4592:4601   */\n      dup4\n        /* \"#utility.yul\":4588:4605   */\n      add\n        /* \"#utility.yul\":4579:4585   */\n      dup5\n        /* \"#utility.yul\":4535:4606   */\n      tag_126\n      jump\t// in\n    tag_183:\n        /* \"#utility.yul\":4391:4613   */\n      swap3\n      swap2\n      pop\n      pop\n      jump\t// out\n        /* \"#utility.yul\":4619:4873   */\n    tag_29:\n        /* \"#utility.yul\":4728:4732   */\n      0x00\n        /* \"#utility.yul\":4766:4768   */\n      0x20\n        /* \"#utility.yul\":4755:4764   */\n      dup3\n        /* \"#utility.yul\":4751:4769   */\n      add\n        /* \"#utility.yul\":4743:4769   */\n      swap1\n      pop\n        /* \"#utility.yul\":4779:4866   */\n      tag_185\n        /* \"#utility.yul\":4863:4864   */\n      0x00\n        /* \"#utility.yul\":4852:4861   */\n      dup4\n        /* \"#utility.yul\":4848:4865   */\n      add\n        /* \"#utility.yul\":4839:4845   */\n      dup5\n        /* \"#utility.yul\":4779:4866   */\n      tag_122\n      jump\t// in\n    tag_185:\n        /* \"#utility.yul\":4619:4873   */\n      swap3\n      swap2\n      pop\n      pop\n      jump\t// out\n        /* \"#utility.yul\":4879:5089   */\n    tag_34:\n        /* \"#utility.yul\":4966:4970   */\n      0x00\n        /* \"#utility.yul\":5004:5006   */\n      0x20\n        /* \"#utility.yul\":4993:5002   */\n      dup3\n        /* \"#utility.yul\":4989:5007   */\n      add\n        /* \"#utility.yul\":4981:5007   */\n      swap1\n      pop\n        /* \"#utility.yul\":5017:5082   */\n      tag_187\n        /* \"#utility.yul\":5079:5080   */\n      0x00\n        /* \"#utility.yul\":5068:5077   */\n      dup4\n        /* \"#utility.yul\":5064:5081   */\n      add\n        /* \"#utility.yul\":5055:5061   */\n      dup5\n        /* \"#utility.yul\":5017:5082   */\n      tag_130\n      jump\t// in\n    tag_187:\n        /* \"#utility.yul\":4879:5089   */\n      swap3\n      swap2\n      pop\n      pop\n      jump\t// out\n        /* \"#utility.yul\":5095:5514   */\n    tag_111:\n        /* \"#utility.yul\":5261:5265   */\n      0x00\n        /* \"#utility.yul\":5299:5301   */\n      0x20\n        /* \"#utility.yul\":5288:5297   */\n      dup3\n        /* \"#utility.yul\":5284:5302   */\n      add\n        /* \"#utility.yul\":5276:5302   */\n      swap1\n      pop\n        /* \"#utility.yul\":5348:5357   */\n      dup2\n        /* \"#utility.yul\":5342:5346   */\n      dup2\n        /* \"#utility.yul\":5338:5358   */\n      sub\n        /* \"#utility.yul\":5334:5335   */\n      0x00\n        /* \"#utility.yul\":5323:5332   */\n      dup4\n        /* \"#utility.yul\":5319:5336   */\n      add\n        /* \"#utility.yul\":5312:5359   */\n      mstore\n        /* \"#utility.yul\":5376:5507   */\n      tag_189\n        /* \"#utility.yul\":5502:5506   */\n      dup2\n        /* \"#utility.yul\":5376:5507   */\n      tag_134\n      jump\t// in\n    tag_189:\n        /* \"#utility.yul\":5368:5507   */\n      swap1\n      pop\n        /* \"#utility.yul\":5095:5514   */\n      swap2\n      swap1\n      pop\n      jump\t// out\n        /* \"#utility.yul\":5520:5939   */\n    tag_66:\n        /* \"#utility.yul\":5686:5690   */\n      0x00\n        /* \"#utility.yul\":5724:5726   */\n      0x20\n        /* \"#utility.yul\":5713:5722   */\n      dup3\n        /* \"#utility.yul\":5709:5727   */\n      add\n        /* \"#utility.yul\":5701:5727   */\n      swap1\n      pop\n        /* \"#utility.yul\":5773:5782   */\n      dup2\n        /* \"#utility.yul\":5767:5771   */\n      dup2\n        /* \"#utility.yul\":5763:5783   */\n      sub\n        /* \"#utility.yul\":5759:5760   */\n      0x00\n        /* \"#utility.yul\":5748:5757   */\n      dup4\n        /* \"#utility.yul\":5744:5761   */\n      add\n        /* \"#utility.yul\":5737:5784   */\n      mstore\n        /* \"#utility.yul\":5801:5932   */\n      tag_191\n        /* \"#utility.yul\":5927:5931   */\n      dup2\n        /* \"#utility.yul\":5801:5932   */\n      tag_140\n      jump\t// in\n    tag_191:\n        /* \"#utility.yul\":5793:5932   */\n      swap1\n      pop\n        /* \"#utility.yul\":5520:5939   */\n      swap2\n      swap1\n      pop\n      jump\t// out\n        /* \"#utility.yul\":5945:6364   */\n    tag_63:\n        /* \"#utility.yul\":6111:6115   */\n      0x00\n        /* \"#utility.yul\":6149:6151   */\n      0x20\n        /* \"#utility.yul\":6138:6147   */\n      dup3\n        /* \"#utility.yul\":6134:6152   */\n      add\n        /* \"#utility.yul\":6126:6152   */\n      swap1\n      pop\n        /* \"#utility.yul\":6198:6207   */\n      dup2\n        /* \"#utility.yul\":6192:6196   */\n      dup2\n        /* \"#utility.yul\":6188:6208   */\n      sub\n        /* \"#utility.yul\":6184:6185   */\n      0x00\n        /* \"#utility.yul\":6173:6182   */\n      dup4\n        /* \"#utility.yul\":6169:6186   */\n      add\n        /* \"#utility.yul\":6162:6209   */\n      mstore\n        /* \"#utility.yul\":6226:6357   */\n      tag_193\n        /* \"#utility.yul\":6352:6356   */\n      dup2\n        /* \"#utility.yul\":6226:6357   */\n      tag_145\n      jump\t// in\n    tag_193:\n        /* \"#utility.yul\":6218:6357   */\n      swap1\n      pop\n        /* \"#utility.yul\":5945:6364   */\n      swap2\n      swap1\n      pop\n      jump\t// out\n        /* \"#utility.yul\":6370:6789   */\n    tag_59:\n        /* \"#utility.yul\":6536:6540   */\n      0x00\n        /* \"#utility.yul\":6574:6576   */\n      0x20\n        /* \"#utility.yul\":6563:6572   */\n      dup3\n        /* \"#utility.yul\":6559:6577   */\n      add\n        /* \"#utility.yul\":6551:6577   */\n      swap1\n      pop\n        /* \"#utility.yul\":6623:6632   */\n      dup2\n        /* \"#utility.yul\":6617:6621   */\n      dup2\n        /* \"#utility.yul\":6613:6633   */\n      sub\n        /* \"#utility.yul\":6609:6610   */\n      0x00\n        /* \"#utility.yul\":6598:6607   */\n      dup4\n        /* \"#utility.yul\":6594:6611   */\n      add\n        /* \"#utility.yul\":6587:6634   */\n      mstore\n        /* \"#utility.yul\":6651:6782   */\n      tag_195\n        /* \"#utility.yul\":6777:6781   */\n      dup2\n        /* \"#utility.yul\":6651:6782   */\n      tag_150\n      jump\t// in\n    tag_195:\n        /* \"#utility.yul\":6643:6782   */\n      swap1\n      pop\n        /* \"#utility.yul\":6370:6789   */\n      swap2\n      swap1\n      pop\n      jump\t// out\n        /* \"#utility.yul\":6795:7214   */\n    tag_16:\n        /* \"#utility.yul\":6961:6965   */\n      0x00\n        /* \"#utility.yul\":6999:7001   */\n      0x20\n        /* \"#utility.yul\":6988:6997   */\n      dup3\n        /* \"#utility.yul\":6984:7002   */\n      add\n        /* \"#utility.yul\":6976:7002   */\n      swap1\n      pop\n        /* \"#utility.yul\":7048:7057   */\n      dup2\n        /* \"#utility.yul\":7042:7046   */\n      dup2\n        /* \"#utility.yul\":7038:7058   */\n      sub\n        /* \"#utility.yul\":7034:7035   */\n      0x00\n        /* \"#utility.yul\":7023:7032   */\n      dup4\n        /* \"#utility.yul\":7019:7036   */\n      add\n        /* \"#utility.yul\":7012:7059   */\n      mstore\n        /* \"#utility.yul\":7076:7207   */\n      tag_197\n        /* \"#utility.yul\":7202:7206   */\n      dup2\n        /* \"#utility.yul\":7076:7207   */\n      tag_155\n      jump\t// in\n    tag_197:\n        /* \"#utility.yul\":7068:7207   */\n      swap1\n      pop\n        /* \"#utility.yul\":6795:7214   */\n      swap2\n      swap1\n      pop\n      jump\t// out\n        /* \"#utility.yul\":7220:7639   */\n    tag_74:\n        /* \"#utility.yul\":7386:7390   */\n      0x00\n        /* \"#utility.yul\":7424:7426   */\n      0x20\n        /* \"#utility.yul\":7413:7422   */\n      dup3\n        /* \"#utility.yul\":7409:7427   */\n      add\n        /* \"#utility.yul\":7401:7427   */\n      swap1\n      pop\n        /* \"#utility.yul\":7473:7482   */\n      dup2\n        /* \"#utility.yul\":7467:7471   */\n      dup2\n        /* \"#utility.yul\":7463:7483   */\n      sub\n        /* \"#utility.yul\":7459:7460   */\n      0x00\n        /* \"#utility.yul\":7448:7457   */\n      dup4\n        /* \"#utility.yul\":7444:7461   */\n      add\n        /* \"#utility.yul\":7437:7484   */\n      mstore\n        /* \"#utility.yul\":7501:7632   */\n      tag_199\n        /* \"#utility.yul\":7627:7631   */\n      dup2\n        /* \"#utility.yul\":7501:7632   */\n      tag_160\n      jump\t// in\n    tag_199:\n        /* \"#utility.yul\":7493:7632   */\n      swap1\n      pop\n        /* \"#utility.yul\":7220:7639   */\n      swap2\n      swap1\n      pop\n      jump\t// out\n        /* \"#utility.yul\":7645:8064   */\n    tag_102:\n        /* \"#utility.yul\":7811:7815   */\n      0x00\n        /* \"#utility.yul\":7849:7851   */\n      0x20\n        /* \"#utility.yul\":7838:7847   */\n      dup3\n        /* \"#utility.yul\":7834:7852   */\n      add\n        /* \"#utility.yul\":7826:7852   */\n      swap1\n      pop\n        /* \"#utility.yul\":7898:7907   */\n      dup2\n        /* \"#utility.yul\":7892:7896   */\n      dup2\n        /* \"#utility.yul\":7888:7908   */\n      sub\n        /* \"#utility.yul\":7884:7885   */\n      0x00\n        /* \"#utility.yul\":7873:7882   */\n      dup4\n        /* \"#utility.yul\":7869:7886   */\n      add\n        /* \"#utility.yul\":7862:7909   */\n      mstore\n        /* \"#utility.yul\":7926:8057   */\n      tag_201\n        /* \"#utility.yul\":8052:8056   */\n      dup2\n        /* \"#utility.yul\":7926:8057   */\n      tag_171\n      jump\t// in\n    tag_201:\n        /* \"#utility.yul\":7918:8057   */\n      swap1\n      pop\n        /* \"#utility.yul\":7645:8064   */\n      swap2\n      swap1\n      pop\n      jump\t// out\n        /* \"#utility.yul\":8070:8292   */\n    tag_22:\n        /* \"#utility.yul\":8163:8167   */\n      0x00\n        /* \"#utility.yul\":8201:8203   */\n      0x20\n        /* \"#utility.yul\":8190:8199   */\n      dup3\n        /* \"#utility.yul\":8186:8204   */\n      add\n        /* \"#utility.yul\":8178:8204   */\n      swap1\n      pop\n        /* \"#utility.yul\":8214:8285   */\n      tag_203\n        /* \"#utility.yul\":8282:8283   */\n      0x00\n        /* \"#utility.yul\":8271:8280   */\n      dup4\n        /* \"#utility.yul\":8267:8284   */\n      add\n        /* \"#utility.yul\":8258:8264   */\n      dup5\n        /* \"#utility.yul\":8214:8285   */\n      tag_176\n      jump\t// in\n    tag_203:\n        /* \"#utility.yul\":8070:8292   */\n      swap3\n      swap2\n      pop\n      pop\n      jump\t// out\n        /* \"#utility.yul\":8298:8740   */\n    tag_86:\n        /* \"#utility.yul\":8447:8451   */\n      0x00\n        /* \"#utility.yul\":8485:8487   */\n      0x60\n        /* \"#utility.yul\":8474:8483   */\n      dup3\n        /* \"#utility.yul\":8470:8488   */\n      add\n        /* \"#utility.yul\":8462:8488   */\n      swap1\n      pop\n        /* \"#utility.yul\":8498:8569   */\n      tag_205\n        /* \"#utility.yul\":8566:8567   */\n      0x00\n        /* \"#utility.yul\":8555:8564   */\n      dup4\n        /* \"#utility.yul\":8551:8568   */\n      add\n        /* \"#utility.yul\":8542:8548   */\n      dup7\n        /* \"#utility.yul\":8498:8569   */\n      tag_176\n      jump\t// in\n    tag_205:\n        /* \"#utility.yul\":8579:8651   */\n      tag_206\n        /* \"#utility.yul\":8647:8649   */\n      0x20\n        /* \"#utility.yul\":8636:8645   */\n      dup4\n        /* \"#utility.yul\":8632:8650   */\n      add\n        /* \"#utility.yul\":8623:8629   */\n      dup6\n        /* \"#utility.yul\":8579:8651   */\n      tag_176\n      jump\t// in\n    tag_206:\n        /* \"#utility.yul\":8661:8733   */\n      tag_207\n        /* \"#utility.yul\":8729:8731   */\n      0x40\n        /* \"#utility.yul\":8718:8727   */\n      dup4\n        /* \"#utility.yul\":8714:8732   */\n      add\n        /* \"#utility.yul\":8705:8711   */\n      dup5\n        /* \"#utility.yul\":8661:8733   */\n      tag_176\n      jump\t// in\n    tag_207:\n        /* \"#utility.yul\":8298:8740   */\n      swap5\n      swap4\n      pop\n      pop\n      pop\n      pop\n      jump\t// out\n        /* \"#utility.yul\":8827:8974   */\n    tag_168:\n        /* \"#utility.yul\":8928:8939   */\n      0x00\n        /* \"#utility.yul\":8965:8968   */\n      dup2\n        /* \"#utility.yul\":8950:8968   */\n      swap1\n      pop\n        /* \"#utility.yul\":8827:8974   */\n      swap3\n      swap2\n      pop\n      pop\n      jump\t// out\n        /* \"#utility.yul\":8980:9149   */\n    tag_137:\n        /* \"#utility.yul\":9064:9075   */\n      0x00\n        /* \"#utility.yul\":9098:9104   */\n      dup3\n        /* \"#utility.yul\":9093:9096   */\n      dup3\n        /* \"#utility.yul\":9086:9105   */\n      mstore\n        /* \"#utility.yul\":9138:9142   */\n      0x20\n        /* \"#utility.yul\":9133:9136   */\n      dup3\n        /* \"#utility.yul\":9129:9143   */\n      add\n        /* \"#utility.yul\":9114:9143   */\n      swap1\n      pop\n        /* \"#utility.yul\":8980:9149   */\n      swap3\n      swap2\n      pop\n      pop\n      jump\t// out\n        /* \"#utility.yul\":9155:9346   */\n    tag_104:\n        /* \"#utility.yul\":9195:9199   */\n      0x00\n        /* \"#utility.yul\":9215:9235   */\n      tag_213\n        /* \"#utility.yul\":9233:9234   */\n      dup3\n        /* \"#utility.yul\":9215:9235   */\n      tag_179\n      jump\t// in\n    tag_213:\n        /* \"#utility.yul\":9210:9235   */\n      swap2\n      pop\n        /* \"#utility.yul\":9249:9269   */\n      tag_214\n        /* \"#utility.yul\":9267:9268   */\n      dup4\n        /* \"#utility.yul\":9249:9269   */\n      tag_179\n      jump\t// in\n    tag_214:\n        /* \"#utility.yul\":9244:9269   */\n      swap3\n      pop\n        /* \"#utility.yul\":9288:9289   */\n      dup3\n        /* \"#utility.yul\":9285:9286   */\n      dup3\n        /* \"#utility.yul\":9282:9290   */\n      lt\n        /* \"#utility.yul\":9279:9313   */\n      iszero\n      tag_215\n      jumpi\n        /* \"#utility.yul\":9293:9311   */\n      tag_216\n      tag_217\n      jump\t// in\n    tag_216:\n        /* \"#utility.yul\":9279:9313   */\n    tag_215:\n        /* \"#utility.yul\":9338:9339   */\n      dup3\n        /* \"#utility.yul\":9335:9336   */\n      dup3\n        /* \"#utility.yul\":9331:9340   */\n      sub\n        /* \"#utility.yul\":9323:9340   */\n      swap1\n      pop\n        /* \"#utility.yul\":9155:9346   */\n      swap3\n      swap2\n      pop\n      pop\n      jump\t// out\n        /* \"#utility.yul\":9352:9448   */\n    tag_129:\n        /* \"#utility.yul\":9389:9396   */\n      0x00\n        /* \"#utility.yul\":9418:9442   */\n      tag_219\n        /* \"#utility.yul\":9436:9441   */\n      dup3\n        /* \"#utility.yul\":9418:9442   */\n      tag_220\n      jump\t// in\n    tag_219:\n        /* \"#utility.yul\":9407:9442   */\n      swap1\n      pop\n        /* \"#utility.yul\":9352:9448   */\n      swap2\n      swap1\n      pop\n      jump\t// out\n        /* \"#utility.yul\":9454:9558   */\n    tag_125:\n        /* \"#utility.yul\":9499:9506   */\n      0x00\n        /* \"#utility.yul\":9528:9552   */\n      tag_222\n        /* \"#utility.yul\":9546:9551   */\n      dup3\n        /* \"#utility.yul\":9528:9552   */\n      tag_220\n      jump\t// in\n    tag_222:\n        /* \"#utility.yul\":9517:9552   */\n      swap1\n      pop\n        /* \"#utility.yul\":9454:9558   */\n      swap2\n      swap1\n      pop\n      jump\t// out\n        /* \"#utility.yul\":9564:9654   */\n    tag_133:\n        /* \"#utility.yul\":9598:9605   */\n      0x00\n        /* \"#utility.yul\":9641:9646   */\n      dup2\n        /* \"#utility.yul\":9634:9647   */\n      iszero\n        /* \"#utility.yul\":9627:9648   */\n      iszero\n        /* \"#utility.yul\":9616:9648   */\n      swap1\n      pop\n        /* \"#utility.yul\":9564:9654   */\n      swap2\n      swap1\n      pop\n      jump\t// out\n        /* \"#utility.yul\":9660:9786   */\n    tag_220:\n        /* \"#utility.yul\":9697:9704   */\n      0x00\n        /* \"#utility.yul\":9737:9779   */\n      0xffffffffffffffffffffffffffffffffffffffff\n        /* \"#utility.yul\":9730:9735   */\n      dup3\n        /* \"#utility.yul\":9726:9780   */\n      and\n        /* \"#utility.yul\":9715:9780   */\n      swap1\n      pop\n        /* \"#utility.yul\":9660:9786   */\n      swap2\n      swap1\n      pop\n      jump\t// out\n        /* \"#utility.yul\":9792:9869   */\n    tag_179:\n        /* \"#utility.yul\":9829:9836   */\n      0x00\n        /* \"#utility.yul\":9858:9863   */\n      dup2\n        /* \"#utility.yul\":9847:9863   */\n      swap1\n      pop\n        /* \"#utility.yul\":9792:9869   */\n      swap2\n      swap1\n      pop\n      jump\t// out\n        /* \"#utility.yul\":9875:10051   */\n    tag_88:\n        /* \"#utility.yul\":9907:9908   */\n      0x00\n        /* \"#utility.yul\":9924:9944   */\n      tag_227\n        /* \"#utility.yul\":9942:9943   */\n      dup3\n        /* \"#utility.yul\":9924:9944   */\n      tag_179\n      jump\t// in\n    tag_227:\n        /* \"#utility.yul\":9919:9944   */\n      swap2\n      pop\n        /* \"#utility.yul\":9958:9978   */\n      tag_228\n        /* \"#utility.yul\":9976:9977   */\n      dup4\n        /* \"#utility.yul\":9958:9978   */\n      tag_179\n      jump\t// in\n    tag_228:\n        /* \"#utility.yul\":9953:9978   */\n      swap3\n      pop\n        /* \"#utility.yul\":9997:9998   */\n      dup3\n        /* \"#utility.yul\":9987:10022   */\n      tag_229\n      jumpi\n        /* \"#utility.yul\":10002:10020   */\n      tag_230\n      tag_231\n      jump\t// in\n    tag_230:\n        /* \"#utility.yul\":9987:10022   */\n    tag_229:\n        /* \"#utility.yul\":10043:10044   */\n      dup3\n        /* \"#utility.yul\":10040:10041   */\n      dup3\n        /* \"#utility.yul\":10036:10045   */\n      mod\n        /* \"#utility.yul\":10031:10045   */\n      swap1\n      pop\n        /* \"#utility.yul\":9875:10051   */\n      swap3\n      swap2\n      pop\n      pop\n      jump\t// out\n        /* \"#utility.yul\":10057:10237   */\n    tag_217:\n        /* \"#utility.yul\":10105:10182   */\n      0x4e487b7100000000000000000000000000000000000000000000000000000000\n        /* \"#utility.yul\":10102:10103   */\n      0x00\n        /* \"#utility.yul\":10095:10183   */\n      mstore\n        /* \"#utility.yul\":10202:10206   */\n      0x11\n        /* \"#utility.yul\":10199:10200   */\n      0x04\n        /* \"#utility.yul\":10192:10207   */\n      mstore\n        /* \"#utility.yul\":10226:10230   */\n      0x24\n        /* \"#utility.yul\":10223:10224   */\n      0x00\n        /* \"#utility.yul\":10216:10231   */\n      revert\n        /* \"#utility.yul\":10243:10423   */\n    tag_231:\n        /* \"#utility.yul\":10291:10368   */\n      0x4e487b7100000000000000000000000000000000000000000000000000000000\n        /* \"#utility.yul\":10288:10289   */\n      0x00\n        /* \"#utility.yul\":10281:10369   */\n      mstore\n        /* \"#utility.yul\":10388:10392   */\n      0x12\n        /* \"#utility.yul\":10385:10386   */\n      0x04\n        /* \"#utility.yul\":10378:10393   */\n      mstore\n        /* \"#utility.yul\":10412:10416   */\n      0x24\n        /* \"#utility.yul\":10409:10410   */\n      0x00\n        /* \"#utility.yul\":10402:10417   */\n      revert\n        /* \"#utility.yul\":10429:10609   */\n    tag_91:\n        /* \"#utility.yul\":10477:10554   */\n      0x4e487b7100000000000000000000000000000000000000000000000000000000\n        /* \"#utility.yul\":10474:10475   */\n      0x00\n        /* \"#utility.yul\":10467:10555   */\n      mstore\n        /* \"#utility.yul\":10574:10578   */\n      0x32\n        /* \"#utility.yul\":10571:10572   */\n      0x04\n        /* \"#utility.yul\":10564:10579   */\n      mstore\n        /* \"#utility.yul\":10598:10602   */\n      0x24\n        /* \"#utility.yul\":10595:10596   */\n      0x00\n        /* \"#utility.yul\":10588:10603   */\n      revert\n        /* \"#utility.yul\":10738:10855   */\n    tag_120:\n        /* \"#utility.yul\":10847:10848   */\n      0x00\n        /* \"#utility.yul\":10844:10845   */\n      dup1\n        /* \"#utility.yul\":10837:10849   */\n      revert\n        /* \"#utility.yul\":10861:11036   */\n    tag_139:\n        /* \"#utility.yul\":11001:11028   */\n      0x5472616e7366657220746f2077696e6e6572206661696c656400000000000000\n        /* \"#utility.yul\":10997:10998   */\n      0x00\n        /* \"#utility.yul\":10989:10995   */\n      dup3\n        /* \"#utility.yul\":10985:10999   */\n      add\n        /* \"#utility.yul\":10978:11029   */\n      mstore\n        /* \"#utility.yul\":10861:11036   */\n      pop\n      jump\t// out\n        /* \"#utility.yul\":11042:11210   */\n    tag_144:\n        /* \"#utility.yul\":11182:11202   */\n      0x4e6f2062616c616e6365206973206c6566740000000000000000000000000000\n        /* \"#utility.yul\":11178:11179   */\n      0x00\n        /* \"#utility.yul\":11170:11176   */\n      dup3\n        /* \"#utility.yul\":11166:11180   */\n      add\n        /* \"#utility.yul\":11159:11203   */\n      mstore\n        /* \"#utility.yul\":11042:11210   */\n      pop\n      jump\t// out\n        /* \"#utility.yul\":11216:11437   */\n    tag_149:\n        /* \"#utility.yul\":11356:11390   */\n      0x66697273746c7920796f75206861766520746f206465636c6172652077696e6e\n        /* \"#utility.yul\":11352:11353   */\n      0x00\n        /* \"#utility.yul\":11344:11350   */\n      dup3\n        /* \"#utility.yul\":11340:11354   */\n      add\n        /* \"#utility.yul\":11333:11391   */\n      mstore\n        /* \"#utility.yul\":11425:11429   */\n      0x6572000000000000000000000000000000000000000000000000000000000000\n        /* \"#utility.yul\":11420:11422   */\n      0x20\n        /* \"#utility.yul\":11412:11418   */\n      dup3\n        /* \"#utility.yul\":11408:11423   */\n      add\n        /* \"#utility.yul\":11401:11430   */\n      mstore\n        /* \"#utility.yul\":11216:11437   */\n      pop\n      jump\t// out\n        /* \"#utility.yul\":11443:11622   */\n    tag_154:\n        /* \"#utility.yul\":11583:11614   */\n      0x4f6e6c7920546865204d616e616765722063616e20646f207468697320000000\n        /* \"#utility.yul\":11579:11580   */\n      0x00\n        /* \"#utility.yul\":11571:11577   */\n      dup3\n        /* \"#utility.yul\":11567:11581   */\n      add\n        /* \"#utility.yul\":11560:11615   */\n      mstore\n        /* \"#utility.yul\":11443:11622   */\n      pop\n      jump\t// out\n        /* \"#utility.yul\":11628:11799   */\n    tag_159:\n        /* \"#utility.yul\":11768:11791   */\n      0x4b796120726520616565206268696b6d616e6779610000000000000000000000\n        /* \"#utility.yul\":11764:11765   */\n      0x00\n        /* \"#utility.yul\":11756:11762   */\n      dup3\n        /* \"#utility.yul\":11752:11766   */\n      add\n        /* \"#utility.yul\":11745:11792   */\n      mstore\n        /* \"#utility.yul\":11628:11799   */\n      pop\n      jump\t// out\n        /* \"#utility.yul\":11805:11981   */\n    tag_164:\n        /* \"#utility.yul\":11945:11973   */\n      0x5472616e7366657220746f206d616e61676572206661696c6564000000000000\n        /* \"#utility.yul\":11941:11942   */\n      0x00\n        /* \"#utility.yul\":11933:11939   */\n      dup3\n        /* \"#utility.yul\":11929:11943   */\n      add\n        /* \"#utility.yul\":11922:11974   */\n      mstore\n        /* \"#utility.yul\":11805:11981   */\n      pop\n      jump\t// out\n        /* \"#utility.yul\":11987:12101   */\n    tag_170:\n      pop\n      jump\t// out\n        /* \"#utility.yul\":12107:12281   */\n    tag_175:\n        /* \"#utility.yul\":12247:12273   */\n      0x436f6e74726163742062616c616e6365206973205a65726f0000000000000000\n        /* \"#utility.yul\":12243:12244   */\n      0x00\n        /* \"#utility.yul\":12235:12241   */\n      dup3\n        /* \"#utility.yul\":12231:12245   */\n      add\n        /* \"#utility.yul\":12224:12274   */\n      mstore\n        /* \"#utility.yul\":12107:12281   */\n      pop\n      jump\t// out\n        /* \"#utility.yul\":12287:12409   */\n    tag_116:\n        /* \"#utility.yul\":12360:12384   */\n      tag_247\n        /* \"#utility.yul\":12378:12383   */\n      dup2\n        /* \"#utility.yul\":12360:12384   */\n      tag_179\n      jump\t// in\n    tag_247:\n        /* \"#utility.yul\":12353:12358   */\n      dup2\n        /* \"#utility.yul\":12350:12385   */\n      eq\n        /* \"#utility.yul\":12340:12403   */\n      tag_248\n      jumpi\n        /* \"#utility.yul\":12399:12400   */\n      0x00\n        /* \"#utility.yul\":12396:12397   */\n      dup1\n        /* \"#utility.yul\":12389:12401   */\n      revert\n        /* \"#utility.yul\":12340:12403   */\n    tag_248:\n        /* \"#utility.yul\":12287:12409   */\n      pop\n      jump\t// out\n\n    auxdata: 0xa26469706673582212204c6ec38982bbba41d685be24c902030d63bd8b4094d28829f2a29195a063bff764736f6c63430008070033\n}\n",
				"bytecode": {
					"linkReferences": {},
					"object": "608060405234801561001057600080fd5b50336000806101000a81548173ffffffffffffffffffffffffffffffffffffffff021916908373ffffffffffffffffffffffffffffffffffffffff160217905550610eec806100606000396000f3fe60806040526004361061007f5760003560e01c80635ec01e4d1161004e5780635ec01e4d146101f657806378357e53146102215780637f244dd31461024c578063bee098901461027757610133565b806313c170f2146101385780633bb0359a146101635780634918f569146101a05780634d9b3d5d146101cb57610133565b3661013357671bc16d674ec8000034146100ce576040517f08c379a00000000000000000000000000000000000000000000000000000000081526004016100c590610b38565b60405180910390fd5b6001339080600181540180825580915050600190039060005260206000200160009091909190916101000a81548173ffffffffffffffffffffffffffffffffffffffff021916908373ffffffffffffffffffffffffffffffffffffffff160217905550005b600080fd5b34801561014457600080fd5b5061014d6102a2565b60405161015a9190610b98565b60405180910390f35b34801561016f57600080fd5b5061018a600480360381019061018591906108d1565b6104a6565b6040516101979190610a82565b60405180910390f35b3480156101ac57600080fd5b506101b56104e5565b6040516101c29190610a9d565b60405180910390f35b3480156101d757600080fd5b506101e06104f8565b6040516101ed9190610b98565b60405180910390f35b34801561020257600080fd5b5061020b61058f565b6040516102189190610a82565b60405180910390f35b34801561022d57600080fd5b506102366106b1565b6040516102439190610a67565b60405180910390f35b34801561025857600080fd5b506102616106d5565b60405161026e9190610b98565b60405180910390f35b34801561028357600080fd5b5061028c6106e2565b6040516102999190610a67565b60405180910390f35b60008060009054906101000a900473ffffffffffffffffffffffffffffffffffffffff1673ffffffffffffffffffffffffffffffffffffffff163373ffffffffffffffffffffffffffffffffffffffff1614610333576040517f08c379a000000000000000000000000000000000000000000000000000000000815260040161032a90610b18565b60405180910390fd5b600260009054906101000a900460ff16610382576040517f08c379a000000000000000000000000000000000000000000000000000000000815260040161037990610af8565b60405180910390fd5b6000479050670de0b6b3a764000081146103d1576040517f08c379a00000000000000000000000000000000000000000000000000000000081526004016103c890610ad8565b60405180910390fd5b60008060009054906101000a900473ffffffffffffffffffffffffffffffffffffffff1673ffffffffffffffffffffffffffffffffffffffff168260405161041890610a52565b60006040518083038185875af1925050503d8060008114610455576040519150601f19603f3d011682016040523d82523d6000602084013e61045a565b606091505b505090508061049e576040517f08c379a000000000000000000000000000000000000000000000000000000000815260040161049590610b58565b60405180910390fd5b819250505090565b600181815481106104b657600080fd5b906000526020600020016000915054906101000a900473ffffffffffffffffffffffffffffffffffffffff1681565b600260009054906101000a900460ff1681565b60008060009054906101000a900473ffffffffffffffffffffffffffffffffffffffff1673ffffffffffffffffffffffffffffffffffffffff163373ffffffffffffffffffffffffffffffffffffffff1614610589576040517f08c379a000000000000000000000000000000000000000000000000000000000815260040161058090610b18565b60405180910390fd5b47905090565b60008060009054906101000a900473ffffffffffffffffffffffffffffffffffffffff1673ffffffffffffffffffffffffffffffffffffffff163373ffffffffffffffffffffffffffffffffffffffff1614610620576040517f08c379a000000000000000000000000000000000000000000000000000000000815260040161061790610b18565b60405180910390fd5b6000444260018054905060405160200161063c93929190610bb3565b6040516020818303038152906040528051906020012060001c90506000600180805490508361066b9190610c94565b8154811061067c5761067b610d23565b5b9060005260206000200160009054906101000a900473ffffffffffffffffffffffffffffffffffffffff169050809250505090565b60008054906101000a900473ffffffffffffffffffffffffffffffffffffffff1681565b6000600180549050905090565b60008060009054906101000a900473ffffffffffffffffffffffffffffffffffffffff1673ffffffffffffffffffffffffffffffffffffffff163373ffffffffffffffffffffffffffffffffffffffff1614610773576040517f08c379a000000000000000000000000000000000000000000000000000000000815260040161076a90610b18565b60405180910390fd5b60006001805490501161078557600080fd5b6000479050600061079461058f565b9050600082116107d9576040517f08c379a00000000000000000000000000000000000000000000000000000000081526004016107d090610b78565b60405180910390fd5b60008173ffffffffffffffffffffffffffffffffffffffff16670de0b6b3a7640000846108069190610c06565b60405161081290610a52565b60006040518083038185875af1925050503d806000811461084f576040519150601f19603f3d011682016040523d82523d6000602084013e610854565b606091505b5050905080610898576040517f08c379a000000000000000000000000000000000000000000000000000000000815260040161088f90610ab8565b60405180910390fd5b6001600260006101000a81548160ff02191690831515021790555081935050505090565b6000813590506108cb81610e9f565b92915050565b6000602082840312156108e7576108e6610d52565b5b60006108f5848285016108bc565b91505092915050565b61090781610c4c565b82525050565b61091681610c3a565b82525050565b61092581610c5e565b82525050565b6000610938601983610bf5565b915061094382610d57565b602082019050919050565b600061095b601283610bf5565b915061096682610d80565b602082019050919050565b600061097e602283610bf5565b915061098982610da9565b604082019050919050565b60006109a1601d83610bf5565b91506109ac82610df8565b602082019050919050565b60006109c4601583610bf5565b91506109cf82610e21565b602082019050919050565b60006109e7601a83610bf5565b91506109f282610e4a565b602082019050919050565b6000610a0a600083610bea565b9150610a1582610e73565b600082019050919050565b6000610a2d601883610bf5565b9150610a3882610e76565b602082019050919050565b610a4c81610c8a565b82525050565b6000610a5d826109fd565b9150819050919050565b6000602082019050610a7c600083018461090d565b92915050565b6000602082019050610a9760008301846108fe565b92915050565b6000602082019050610ab2600083018461091c565b92915050565b60006020820190508181036000830152610ad18161092b565b9050919050565b60006020820190508181036000830152610af18161094e565b9050919050565b60006020820190508181036000830152610b1181610971565b9050919050565b60006020820190508181036000830152610b3181610994565b9050919050565b60006020820190508181036000830152610b51816109b7565b9050919050565b60006020820190508181036000830152610b71816109da565b9050919050565b60006020820190508181036000830152610b9181610a20565b9050919050565b6000602082019050610bad6000830184610a43565b92915050565b6000606082019050610bc86000830186610a43565b610bd56020830185610a43565b610be26040830184610a43565b949350505050565b600081905092915050565b600082825260208201905092915050565b6000610c1182610c8a565b9150610c1c83610c8a565b925082821015610c2f57610c2e610cc5565b5b828203905092915050565b6000610c4582610c6a565b9050919050565b6000610c5782610c6a565b9050919050565b60008115159050919050565b600073ffffffffffffffffffffffffffffffffffffffff82169050919050565b6000819050919050565b6000610c9f82610c8a565b9150610caa83610c8a565b925082610cba57610cb9610cf4565b5b828206905092915050565b7f4e487b7100000000000000000000000000000000000000000000000000000000600052601160045260246000fd5b7f4e487b7100000000000000000000000000000000000000000000000000000000600052601260045260246000fd5b7f4e487b7100000000000000000000000000000000000000000000000000000000600052603260045260246000fd5b600080fd5b7f5472616e7366657220746f2077696e6e6572206661696c656400000000000000600082015250565b7f4e6f2062616c616e6365206973206c6566740000000000000000000000000000600082015250565b7f66697273746c7920796f75206861766520746f206465636c6172652077696e6e60008201527f6572000000000000000000000000000000000000000000000000000000000000602082015250565b7f4f6e6c7920546865204d616e616765722063616e20646f207468697320000000600082015250565b7f4b796120726520616565206268696b6d616e6779610000000000000000000000600082015250565b7f5472616e7366657220746f206d616e61676572206661696c6564000000000000600082015250565b50565b7f436f6e74726163742062616c616e6365206973205a65726f0000000000000000600082015250565b610ea881610c8a565b8114610eb357600080fd5b5056fea26469706673582212204c6ec38982bbba41d685be24c902030d63bd8b4094d28829f2a29195a063bff764736f6c63430008070033",
					"opcodes": "PUSH1 0x80 PUSH1 0x40 MSTORE CALLVALUE DUP1 ISZERO PUSH2 0x10 JUMPI PUSH1 0x0 DUP1 REVERT JUMPDEST POP CALLER PUSH1 0x0 DUP1 PUSH2 0x100 EXP DUP2 SLOAD DUP2 PUSH20 0xFFFFFFFFFFFFFFFFFFFFFFFFFFFFFFFFFFFFFFFF MUL NOT AND SWAP1 DUP4 PUSH20 0xFFFFFFFFFFFFFFFFFFFFFFFFFFFFFFFFFFFFFFFF AND MUL OR SWAP1 SSTORE POP PUSH2 0xEEC DUP1 PUSH2 0x60 PUSH1 0x0 CODECOPY PUSH1 0x0 RETURN INVALID PUSH1 0x80 PUSH1 0x40 MSTORE PUSH1 0x4 CALLDATASIZE LT PUSH2 0x7F JUMPI PUSH1 0x0 CALLDATALOAD PUSH1 0xE0 SHR DUP1 PUSH4 0x5EC01E4D GT PUSH2 0x4E JUMPI DUP1 PUSH4 0x5EC01E4D EQ PUSH2 0x1F6 JUMPI DUP1 PUSH4 0x78357E53 EQ PUSH2 0x221 JUMPI DUP1 PUSH4 0x7F244DD3 EQ PUSH2 0x24C JUMPI DUP1 PUSH4 0xBEE09890 EQ PUSH2 0x277 JUMPI PUSH2 0x133 JUMP JUMPDEST DUP1 PUSH4 0x13C170F2 EQ PUSH2 0x138 JUMPI DUP1 PUSH4 0x3BB0359A EQ PUSH2 0x163 JUMPI DUP1 PUSH4 0x4918F569 EQ PUSH2 0x1A0 JUMPI DUP1 PUSH4 0x4D9B3D5D EQ PUSH2 0x1CB JUMPI PUSH2 0x133 JUMP JUMPDEST CALLDATASIZE PUSH2 0x133 JUMPI PUSH8 0x1BC16D674EC80000 CALLVALUE EQ PUSH2 0xCE JUMPI PUSH1 0x40 MLOAD PUSH32 0x8C379A000000000000000000000000000000000000000000000000000000000 DUP2 MSTORE PUSH1 0x4 ADD PUSH2 0xC5 SWAP1 PUSH2 0xB38 JUMP JUMPDEST PUSH1 0x40 MLOAD DUP1 SWAP2 SUB SWAP1 REVERT JUMPDEST PUSH1 0x1 CALLER SWAP1 DUP1 PUSH1 0x1 DUP2 SLOAD ADD DUP1 DUP3 SSTORE DUP1 SWAP2 POP POP PUSH1 0x1 SWAP1 SUB SWAP1 PUSH1 0x0 MSTORE PUSH1 0x20 PUSH1 0x0 KECCAK256 ADD PUSH1 0x0 SWAP1 SWAP2 SWAP1 SWAP2 SWAP1 SWAP2 PUSH2 0x100 EXP DUP2 SLOAD DUP2 PUSH20 0xFFFFFFFFFFFFFFFFFFFFFFFFFFFFFFFFFFFFFFFF MUL NOT AND SWAP1 DUP4 PUSH20 0xFFFFFFFFFFFFFFFFFFFFFFFFFFFFFFFFFFFFFFFF AND MUL OR SWAP1 SSTORE POP STOP JUMPDEST PUSH1 0x0 DUP1 REVERT JUMPDEST CALLVALUE DUP1 ISZERO PUSH2 0x144 JUMPI PUSH1 0x0 DUP1 REVERT JUMPDEST POP PUSH2 0x14D PUSH2 0x2A2 JUMP JUMPDEST PUSH1 0x40 MLOAD PUSH2 0x15A SWAP2 SWAP1 PUSH2 0xB98 JUMP JUMPDEST PUSH1 0x40 MLOAD DUP1 SWAP2 SUB SWAP1 RETURN JUMPDEST CALLVALUE DUP1 ISZERO PUSH2 0x16F JUMPI PUSH1 0x0 DUP1 REVERT JUMPDEST POP PUSH2 0x18A PUSH1 0x4 DUP1 CALLDATASIZE SUB DUP2 ADD SWAP1 PUSH2 0x185 SWAP2 SWAP1 PUSH2 0x8D1 JUMP JUMPDEST PUSH2 0x4A6 JUMP JUMPDEST PUSH1 0x40 MLOAD PUSH2 0x197 SWAP2 SWAP1 PUSH2 0xA82 JUMP JUMPDEST PUSH1 0x40 MLOAD DUP1 SWAP2 SUB SWAP1 RETURN JUMPDEST CALLVALUE DUP1 ISZERO PUSH2 0x1AC JUMPI PUSH1 0x0 DUP1 REVERT JUMPDEST POP PUSH2 0x1B5 PUSH2 0x4E5 JUMP JUMPDEST PUSH1 0x40 MLOAD PUSH2 0x1C2 SWAP2 SWAP1 PUSH2 0xA9D JUMP JUMPDEST PUSH1 0x40 MLOAD DUP1 SWAP2 SUB SWAP1 RETURN JUMPDEST CALLVALUE DUP1 ISZERO PUSH2 0x1D7 JUMPI PUSH1 0x0 DUP1 REVERT JUMPDEST POP PUSH2 0x1E0 PUSH2 0x4F8 JUMP JUMPDEST PUSH1 0x40 MLOAD PUSH2 0x1ED SWAP2 SWAP1 PUSH2 0xB98 JUMP JUMPDEST PUSH1 0x40 MLOAD DUP1 SWAP2 SUB SWAP1 RETURN JUMPDEST CALLVALUE DUP1 ISZERO PUSH2 0x202 JUMPI PUSH1 0x0 DUP1 REVERT JUMPDEST POP PUSH2 0x20B PUSH2 0x58F JUMP JUMPDEST PUSH1 0x40 MLOAD PUSH2 0x218 SWAP2 SWAP1 PUSH2 0xA82 JUMP JUMPDEST PUSH1 0x40 MLOAD DUP1 SWAP2 SUB SWAP1 RETURN JUMPDEST CALLVALUE DUP1 ISZERO PUSH2 0x22D JUMPI PUSH1 0x0 DUP1 REVERT JUMPDEST POP PUSH2 0x236 PUSH2 0x6B1 JUMP JUMPDEST PUSH1 0x40 MLOAD PUSH2 0x243 SWAP2 SWAP1 PUSH2 0xA67 JUMP JUMPDEST PUSH1 0x40 MLOAD DUP1 SWAP2 SUB SWAP1 RETURN JUMPDEST CALLVALUE DUP1 ISZERO PUSH2 0x258 JUMPI PUSH1 0x0 DUP1 REVERT JUMPDEST POP PUSH2 0x261 PUSH2 0x6D5 JUMP JUMPDEST PUSH1 0x40 MLOAD PUSH2 0x26E SWAP2 SWAP1 PUSH2 0xB98 JUMP JUMPDEST PUSH1 0x40 MLOAD DUP1 SWAP2 SUB SWAP1 RETURN JUMPDEST CALLVALUE DUP1 ISZERO PUSH2 0x283 JUMPI PUSH1 0x0 DUP1 REVERT JUMPDEST POP PUSH2 0x28C PUSH2 0x6E2 JUMP JUMPDEST PUSH1 0x40 MLOAD PUSH2 0x299 SWAP2 SWAP1 PUSH2 0xA67 JUMP JUMPDEST PUSH1 0x40 MLOAD DUP1 SWAP2 SUB SWAP1 RETURN JUMPDEST PUSH1 0x0 DUP1 PUSH1 0x0 SWAP1 SLOAD SWAP1 PUSH2 0x100 EXP SWAP1 DIV PUSH20 0xFFFFFFFFFFFFFFFFFFFFFFFFFFFFFFFFFFFFFFFF AND PUSH20 0xFFFFFFFFFFFFFFFFFFFFFFFFFFFFFFFFFFFFFFFF AND CALLER PUSH20 0xFFFFFFFFFFFFFFFFFFFFFFFFFFFFFFFFFFFFFFFF AND EQ PUSH2 0x333 JUMPI PUSH1 0x40 MLOAD PUSH32 0x8C379A000000000000000000000000000000000000000000000000000000000 DUP2 MSTORE PUSH1 0x4 ADD PUSH2 0x32A SWAP1 PUSH2 0xB18 JUMP JUMPDEST PUSH1 0x40 MLOAD DUP1 SWAP2 SUB SWAP1 REVERT JUMPDEST PUSH1 0x2 PUSH1 0x0 SWAP1 SLOAD SWAP1 PUSH2 0x100 EXP SWAP1 DIV PUSH1 0xFF AND PUSH2 0x382 JUMPI PUSH1 0x40 MLOAD PUSH32 0x8C379A000000000000000000000000000000000000000000000000000000000 DUP2 MSTORE PUSH1 0x4 ADD PUSH2 0x379 SWAP1 PUSH2 0xAF8 JUMP JUMPDEST PUSH1 0x40 MLOAD DUP1 SWAP2 SUB SWAP1 REVERT JUMPDEST PUSH1 0x0 SELFBALANCE SWAP1 POP PUSH8 0xDE0B6B3A7640000 DUP2 EQ PUSH2 0x3D1 JUMPI PUSH1 0x40 MLOAD PUSH32 0x8C379A000000000000000000000000000000000000000000000000000000000 DUP2 MSTORE PUSH1 0x4 ADD PUSH2 0x3C8 SWAP1 PUSH2 0xAD8 JUMP JUMPDEST PUSH1 0x40 MLOAD DUP1 SWAP2 SUB SWAP1 REVERT JUMPDEST PUSH1 0x0 DUP1 PUSH1 0x0 SWAP1 SLOAD SWAP1 PUSH2 0x100 EXP SWAP1 DIV PUSH20 0xFFFFFFFFFFFFFFFFFFFFFFFFFFFFFFFFFFFFFFFF AND PUSH20 0xFFFFFFFFFFFFFFFFFFFFFFFFFFFFFFFFFFFFFFFF AND DUP3 PUSH1 0x40 MLOAD PUSH2 0x418 SWAP1 PUSH2 0xA52 JUMP JUMPDEST PUSH1 0x0 PUSH1 0x40 MLOAD DUP1 DUP4 SUB DUP2 DUP6 DUP8 GAS CALL SWAP3 POP POP POP RETURNDATASIZE DUP1 PUSH1 0x0 DUP2 EQ PUSH2 0x455 JUMPI PUSH1 0x40 MLOAD SWAP2 POP PUSH1 0x1F NOT PUSH1 0x3F RETURNDATASIZE ADD AND DUP3 ADD PUSH1 0x40 MSTORE RETURNDATASIZE DUP3 MSTORE RETURNDATASIZE PUSH1 0x0 PUSH1 0x20 DUP5 ADD RETURNDATACOPY PUSH2 0x45A JUMP JUMPDEST PUSH1 0x60 SWAP2 POP JUMPDEST POP POP SWAP1 POP DUP1 PUSH2 0x49E JUMPI PUSH1 0x40 MLOAD PUSH32 0x8C379A000000000000000000000000000000000000000000000000000000000 DUP2 MSTORE PUSH1 0x4 ADD PUSH2 0x495 SWAP1 PUSH2 0xB58 JUMP JUMPDEST PUSH1 0x40 MLOAD DUP1 SWAP2 SUB SWAP1 REVERT JUMPDEST DUP2 SWAP3 POP POP POP SWAP1 JUMP JUMPDEST PUSH1 0x1 DUP2 DUP2 SLOAD DUP2 LT PUSH2 0x4B6 JUMPI PUSH1 0x0 DUP1 REVERT JUMPDEST SWAP1 PUSH1 0x0 MSTORE PUSH1 0x20 PUSH1 0x0 KECCAK256 ADD PUSH1 0x0 SWAP2 POP SLOAD SWAP1 PUSH2 0x100 EXP SWAP1 DIV PUSH20 0xFFFFFFFFFFFFFFFFFFFFFFFFFFFFFFFFFFFFFFFF AND DUP2 JUMP JUMPDEST PUSH1 0x2 PUSH1 0x0 SWAP1 SLOAD SWAP1 PUSH2 0x100 EXP SWAP1 DIV PUSH1 0xFF AND DUP2 JUMP JUMPDEST PUSH1 0x0 DUP1 PUSH1 0x0 SWAP1 SLOAD SWAP1 PUSH2 0x100 EXP SWAP1 DIV PUSH20 0xFFFFFFFFFFFFFFFFFFFFFFFFFFFFFFFFFFFFFFFF AND PUSH20 0xFFFFFFFFFFFFFFFFFFFFFFFFFFFFFFFFFFFFFFFF AND CALLER PUSH20 0xFFFFFFFFFFFFFFFFFFFFFFFFFFFFFFFFFFFFFFFF AND EQ PUSH2 0x589 JUMPI PUSH1 0x40 MLOAD PUSH32 0x8C379A000000000000000000000000000000000000000000000000000000000 DUP2 MSTORE PUSH1 0x4 ADD PUSH2 0x580 SWAP1 PUSH2 0xB18 JUMP JUMPDEST PUSH1 0x40 MLOAD DUP1 SWAP2 SUB SWAP1 REVERT JUMPDEST SELFBALANCE SWAP1 POP SWAP1 JUMP JUMPDEST PUSH1 0x0 DUP1 PUSH1 0x0 SWAP1 SLOAD SWAP1 PUSH2 0x100 EXP SWAP1 DIV PUSH20 0xFFFFFFFFFFFFFFFFFFFFFFFFFFFFFFFFFFFFFFFF AND PUSH20 0xFFFFFFFFFFFFFFFFFFFFFFFFFFFFFFFFFFFFFFFF AND CALLER PUSH20 0xFFFFFFFFFFFFFFFFFFFFFFFFFFFFFFFFFFFFFFFF AND EQ PUSH2 0x620 JUMPI PUSH1 0x40 MLOAD PUSH32 0x8C379A000000000000000000000000000000000000000000000000000000000 DUP2 MSTORE PUSH1 0x4 ADD PUSH2 0x617 SWAP1 PUSH2 0xB18 JUMP JUMPDEST PUSH1 0x40 MLOAD DUP1 SWAP2 SUB SWAP1 REVERT JUMPDEST PUSH1 0x0 DIFFICULTY TIMESTAMP PUSH1 0x1 DUP1 SLOAD SWAP1 POP PUSH1 0x40 MLOAD PUSH1 0x20 ADD PUSH2 0x63C SWAP4 SWAP3 SWAP2 SWAP1 PUSH2 0xBB3 JUMP JUMPDEST PUSH1 0x40 MLOAD PUSH1 0x20 DUP2 DUP4 SUB SUB DUP2 MSTORE SWAP1 PUSH1 0x40 MSTORE DUP1 MLOAD SWAP1 PUSH1 0x20 ADD KECCAK256 PUSH1 0x0 SHR SWAP1 POP PUSH1 0x0 PUSH1 0x1 DUP1 DUP1 SLOAD SWAP1 POP DUP4 PUSH2 0x66B SWAP2 SWAP1 PUSH2 0xC94 JUMP JUMPDEST DUP2 SLOAD DUP2 LT PUSH2 0x67C JUMPI PUSH2 0x67B PUSH2 0xD23 JUMP JUMPDEST JUMPDEST SWAP1 PUSH1 0x0 MSTORE PUSH1 0x20 PUSH1 0x0 KECCAK256 ADD PUSH1 0x0 SWAP1 SLOAD SWAP1 PUSH2 0x100 EXP SWAP1 DIV PUSH20 0xFFFFFFFFFFFFFFFFFFFFFFFFFFFFFFFFFFFFFFFF AND SWAP1 POP DUP1 SWAP3 POP POP POP SWAP1 JUMP JUMPDEST PUSH1 0x0 DUP1 SLOAD SWAP1 PUSH2 0x100 EXP SWAP1 DIV PUSH20 0xFFFFFFFFFFFFFFFFFFFFFFFFFFFFFFFFFFFFFFFF AND DUP2 JUMP JUMPDEST PUSH1 0x0 PUSH1 0x1 DUP1 SLOAD SWAP1 POP SWAP1 POP SWAP1 JUMP JUMPDEST PUSH1 0x0 DUP1 PUSH1 0x0 SWAP1 SLOAD SWAP1 PUSH2 0x100 EXP SWAP1 DIV PUSH20 0xFFFFFFFFFFFFFFFFFFFFFFFFFFFFFFFFFFFFFFFF AND PUSH20 0xFFFFFFFFFFFFFFFFFFFFFFFFFFFFFFFFFFFFFFFF AND CALLER PUSH20 0xFFFFFFFFFFFFFFFFFFFFFFFFFFFFFFFFFFFFFFFF AND EQ PUSH2 0x773 JUMPI PUSH1 0x40 MLOAD PUSH32 0x8C379A000000000000000000000000000000000000000000000000000000000 DUP2 MSTORE PUSH1 0x4 ADD PUSH2 0x76A SWAP1 PUSH2 0xB18 JUMP JUMPDEST PUSH1 0x40 MLOAD DUP1 SWAP2 SUB SWAP1 REVERT JUMPDEST PUSH1 0x0 PUSH1 0x1 DUP1 SLOAD SWAP1 POP GT PUSH2 0x785 JUMPI PUSH1 0x0 DUP1 REVERT JUMPDEST PUSH1 0x0 SELFBALANCE SWAP1 POP PUSH1 0x0 PUSH2 0x794 PUSH2 0x58F JUMP JUMPDEST SWAP1 POP PUSH1 0x0 DUP3 GT PUSH2 0x7D9 JUMPI PUSH1 0x40 MLOAD PUSH32 0x8C379A000000000000000000000000000000000000000000000000000000000 DUP2 MSTORE PUSH1 0x4 ADD PUSH2 0x7D0 SWAP1 PUSH2 0xB78 JUMP JUMPDEST PUSH1 0x40 MLOAD DUP1 SWAP2 SUB SWAP1 REVERT JUMPDEST PUSH1 0x0 DUP2 PUSH20 0xFFFFFFFFFFFFFFFFFFFFFFFFFFFFFFFFFFFFFFFF AND PUSH8 0xDE0B6B3A7640000 DUP5 PUSH2 0x806 SWAP2 SWAP1 PUSH2 0xC06 JUMP JUMPDEST PUSH1 0x40 MLOAD PUSH2 0x812 SWAP1 PUSH2 0xA52 JUMP JUMPDEST PUSH1 0x0 PUSH1 0x40 MLOAD DUP1 DUP4 SUB DUP2 DUP6 DUP8 GAS CALL SWAP3 POP POP POP RETURNDATASIZE DUP1 PUSH1 0x0 DUP2 EQ PUSH2 0x84F JUMPI PUSH1 0x40 MLOAD SWAP2 POP PUSH1 0x1F NOT PUSH1 0x3F RETURNDATASIZE ADD AND DUP3 ADD PUSH1 0x40 MSTORE RETURNDATASIZE DUP3 MSTORE RETURNDATASIZE PUSH1 0x0 PUSH1 0x20 DUP5 ADD RETURNDATACOPY PUSH2 0x854 JUMP JUMPDEST PUSH1 0x60 SWAP2 POP JUMPDEST POP POP SWAP1 POP DUP1 PUSH2 0x898 JUMPI PUSH1 0x40 MLOAD PUSH32 0x8C379A000000000000000000000000000000000000000000000000000000000 DUP2 MSTORE PUSH1 0x4 ADD PUSH2 0x88F SWAP1 PUSH2 0xAB8 JUMP JUMPDEST PUSH1 0x40 MLOAD DUP1 SWAP2 SUB SWAP1 REVERT JUMPDEST PUSH1 0x1 PUSH1 0x2 PUSH1 0x0 PUSH2 0x100 EXP DUP2 SLOAD DUP2 PUSH1 0xFF MUL NOT AND SWAP1 DUP4 ISZERO ISZERO MUL OR SWAP1 SSTORE POP DUP2 SWAP4 POP POP POP POP SWAP1 JUMP JUMPDEST PUSH1 0x0 DUP2 CALLDATALOAD SWAP1 POP PUSH2 0x8CB DUP2 PUSH2 0xE9F JUMP JUMPDEST SWAP3 SWAP2 POP POP JUMP JUMPDEST PUSH1 0x0 PUSH1 0x20 DUP3 DUP5 SUB SLT ISZERO PUSH2 0x8E7 JUMPI PUSH2 0x8E6 PUSH2 0xD52 JUMP JUMPDEST JUMPDEST PUSH1 0x0 PUSH2 0x8F5 DUP5 DUP3 DUP6 ADD PUSH2 0x8BC JUMP JUMPDEST SWAP2 POP POP SWAP3 SWAP2 POP POP JUMP JUMPDEST PUSH2 0x907 DUP2 PUSH2 0xC4C JUMP JUMPDEST DUP3 MSTORE POP POP JUMP JUMPDEST PUSH2 0x916 DUP2 PUSH2 0xC3A JUMP JUMPDEST DUP3 MSTORE POP POP JUMP JUMPDEST PUSH2 0x925 DUP2 PUSH2 0xC5E JUMP JUMPDEST DUP3 MSTORE POP POP JUMP JUMPDEST PUSH1 0x0 PUSH2 0x938 PUSH1 0x19 DUP4 PUSH2 0xBF5 JUMP JUMPDEST SWAP2 POP PUSH2 0x943 DUP3 PUSH2 0xD57 JUMP JUMPDEST PUSH1 0x20 DUP3 ADD SWAP1 POP SWAP2 SWAP1 POP JUMP JUMPDEST PUSH1 0x0 PUSH2 0x95B PUSH1 0x12 DUP4 PUSH2 0xBF5 JUMP JUMPDEST SWAP2 POP PUSH2 0x966 DUP3 PUSH2 0xD80 JUMP JUMPDEST PUSH1 0x20 DUP3 ADD SWAP1 POP SWAP2 SWAP1 POP JUMP JUMPDEST PUSH1 0x0 PUSH2 0x97E PUSH1 0x22 DUP4 PUSH2 0xBF5 JUMP JUMPDEST SWAP2 POP PUSH2 0x989 DUP3 PUSH2 0xDA9 JUMP JUMPDEST PUSH1 0x40 DUP3 ADD SWAP1 POP SWAP2 SWAP1 POP JUMP JUMPDEST PUSH1 0x0 PUSH2 0x9A1 PUSH1 0x1D DUP4 PUSH2 0xBF5 JUMP JUMPDEST SWAP2 POP PUSH2 0x9AC DUP3 PUSH2 0xDF8 JUMP JUMPDEST PUSH1 0x20 DUP3 ADD SWAP1 POP SWAP2 SWAP1 POP JUMP JUMPDEST PUSH1 0x0 PUSH2 0x9C4 PUSH1 0x15 DUP4 PUSH2 0xBF5 JUMP JUMPDEST SWAP2 POP PUSH2 0x9CF DUP3 PUSH2 0xE21 JUMP JUMPDEST PUSH1 0x20 DUP3 ADD SWAP1 POP SWAP2 SWAP1 POP JUMP JUMPDEST PUSH1 0x0 PUSH2 0x9E7 PUSH1 0x1A DUP4 PUSH2 0xBF5 JUMP JUMPDEST SWAP2 POP PUSH2 0x9F2 DUP3 PUSH2 0xE4A JUMP JUMPDEST PUSH1 0x20 DUP3 ADD SWAP1 POP SWAP2 SWAP1 POP JUMP JUMPDEST PUSH1 0x0 PUSH2 0xA0A PUSH1 0x0 DUP4 PUSH2 0xBEA JUMP JUMPDEST SWAP2 POP PUSH2 0xA15 DUP3 PUSH2 0xE73 JUMP JUMPDEST PUSH1 0x0 DUP3 ADD SWAP1 POP SWAP2 SWAP1 POP JUMP JUMPDEST PUSH1 0x0 PUSH2 0xA2D PUSH1 0x18 DUP4 PUSH2 0xBF5 JUMP JUMPDEST SWAP2 POP PUSH2 0xA38 DUP3 PUSH2 0xE76 JUMP JUMPDEST PUSH1 0x20 DUP3 ADD SWAP1 POP SWAP2 SWAP1 POP JUMP JUMPDEST PUSH2 0xA4C DUP2 PUSH2 0xC8A JUMP JUMPDEST DUP3 MSTORE POP POP JUMP JUMPDEST PUSH1 0x0 PUSH2 0xA5D DUP3 PUSH2 0x9FD JUMP JUMPDEST SWAP2 POP DUP2 SWAP1 POP SWAP2 SWAP1 POP JUMP JUMPDEST PUSH1 0x0 PUSH1 0x20 DUP3 ADD SWAP1 POP PUSH2 0xA7C PUSH1 0x0 DUP4 ADD DUP5 PUSH2 0x90D JUMP JUMPDEST SWAP3 SWAP2 POP POP JUMP JUMPDEST PUSH1 0x0 PUSH1 0x20 DUP3 ADD SWAP1 POP PUSH2 0xA97 PUSH1 0x0 DUP4 ADD DUP5 PUSH2 0x8FE JUMP JUMPDEST SWAP3 SWAP2 POP POP JUMP JUMPDEST PUSH1 0x0 PUSH1 0x20 DUP3 ADD SWAP1 POP PUSH2 0xAB2 PUSH1 0x0 DUP4 ADD DUP5 PUSH2 0x91C JUMP JUMPDEST SWAP3 SWAP2 POP POP JUMP JUMPDEST PUSH1 0x0 PUSH1 0x20 DUP3 ADD SWAP1 POP DUP2 DUP2 SUB PUSH1 0x0 DUP4 ADD MSTORE PUSH2 0xAD1 DUP2 PUSH2 0x92B JUMP JUMPDEST SWAP1 POP SWAP2 SWAP1 POP JUMP JUMPDEST PUSH1 0x0 PUSH1 0x20 DUP3 ADD SWAP1 POP DUP2 DUP2 SUB PUSH1 0x0 DUP4 ADD MSTORE PUSH2 0xAF1 DUP2 PUSH2 0x94E JUMP JUMPDEST SWAP1 POP SWAP2 SWAP1 POP JUMP JUMPDEST PUSH1 0x0 PUSH1 0x20 DUP3 ADD SWAP1 POP DUP2 DUP2 SUB PUSH1 0x0 DUP4 ADD MSTORE PUSH2 0xB11 DUP2 PUSH2 0x971 JUMP JUMPDEST SWAP1 POP SWAP2 SWAP1 POP JUMP JUMPDEST PUSH1 0x0 PUSH1 0x20 DUP3 ADD SWAP1 POP DUP2 DUP2 SUB PUSH1 0x0 DUP4 ADD MSTORE PUSH2 0xB31 DUP2 PUSH2 0x994 JUMP JUMPDEST SWAP1 POP SWAP2 SWAP1 POP JUMP JUMPDEST PUSH1 0x0 PUSH1 0x20 DUP3 ADD SWAP1 POP DUP2 DUP2 SUB PUSH1 0x0 DUP4 ADD MSTORE PUSH2 0xB51 DUP2 PUSH2 0x9B7 JUMP JUMPDEST SWAP1 POP SWAP2 SWAP1 POP JUMP JUMPDEST PUSH1 0x0 PUSH1 0x20 DUP3 ADD SWAP1 POP DUP2 DUP2 SUB PUSH1 0x0 DUP4 ADD MSTORE PUSH2 0xB71 DUP2 PUSH2 0x9DA JUMP JUMPDEST SWAP1 POP SWAP2 SWAP1 POP JUMP JUMPDEST PUSH1 0x0 PUSH1 0x20 DUP3 ADD SWAP1 POP DUP2 DUP2 SUB PUSH1 0x0 DUP4 ADD MSTORE PUSH2 0xB91 DUP2 PUSH2 0xA20 JUMP JUMPDEST SWAP1 POP SWAP2 SWAP1 POP JUMP JUMPDEST PUSH1 0x0 PUSH1 0x20 DUP3 ADD SWAP1 POP PUSH2 0xBAD PUSH1 0x0 DUP4 ADD DUP5 PUSH2 0xA43 JUMP JUMPDEST SWAP3 SWAP2 POP POP JUMP JUMPDEST PUSH1 0x0 PUSH1 0x60 DUP3 ADD SWAP1 POP PUSH2 0xBC8 PUSH1 0x0 DUP4 ADD DUP7 PUSH2 0xA43 JUMP JUMPDEST PUSH2 0xBD5 PUSH1 0x20 DUP4 ADD DUP6 PUSH2 0xA43 JUMP JUMPDEST PUSH2 0xBE2 PUSH1 0x40 DUP4 ADD DUP5 PUSH2 0xA43 JUMP JUMPDEST SWAP5 SWAP4 POP POP POP POP JUMP JUMPDEST PUSH1 0x0 DUP2 SWAP1 POP SWAP3 SWAP2 POP POP JUMP JUMPDEST PUSH1 0x0 DUP3 DUP3 MSTORE PUSH1 0x20 DUP3 ADD SWAP1 POP SWAP3 SWAP2 POP POP JUMP JUMPDEST PUSH1 0x0 PUSH2 0xC11 DUP3 PUSH2 0xC8A JUMP JUMPDEST SWAP2 POP PUSH2 0xC1C DUP4 PUSH2 0xC8A JUMP JUMPDEST SWAP3 POP DUP3 DUP3 LT ISZERO PUSH2 0xC2F JUMPI PUSH2 0xC2E PUSH2 0xCC5 JUMP JUMPDEST JUMPDEST DUP3 DUP3 SUB SWAP1 POP SWAP3 SWAP2 POP POP JUMP JUMPDEST PUSH1 0x0 PUSH2 0xC45 DUP3 PUSH2 0xC6A JUMP JUMPDEST SWAP1 POP SWAP2 SWAP1 POP JUMP JUMPDEST PUSH1 0x0 PUSH2 0xC57 DUP3 PUSH2 0xC6A JUMP JUMPDEST SWAP1 POP SWAP2 SWAP1 POP JUMP JUMPDEST PUSH1 0x0 DUP2 ISZERO ISZERO SWAP1 POP SWAP2 SWAP1 POP JUMP JUMPDEST PUSH1 0x0 PUSH20 0xFFFFFFFFFFFFFFFFFFFFFFFFFFFFFFFFFFFFFFFF DUP3 AND SWAP1 POP SWAP2 SWAP1 POP JUMP JUMPDEST PUSH1 0x0 DUP2 SWAP1 POP SWAP2 SWAP1 POP JUMP JUMPDEST PUSH1 0x0 PUSH2 0xC9F DUP3 PUSH2 0xC8A JUMP JUMPDEST SWAP2 POP PUSH2 0xCAA DUP4 PUSH2 0xC8A JUMP JUMPDEST SWAP3 POP DUP3 PUSH2 0xCBA JUMPI PUSH2 0xCB9 PUSH2 0xCF4 JUMP JUMPDEST JUMPDEST DUP3 DUP3 MOD SWAP1 POP SWAP3 SWAP2 POP POP JUMP JUMPDEST PUSH32 0x4E487B7100000000000000000000000000000000000000000000000000000000 PUSH1 0x0 MSTORE PUSH1 0x11 PUSH1 0x4 MSTORE PUSH1 0x24 PUSH1 0x0 REVERT JUMPDEST PUSH32 0x4E487B7100000000000000000000000000000000000000000000000000000000 PUSH1 0x0 MSTORE PUSH1 0x12 PUSH1 0x4 MSTORE PUSH1 0x24 PUSH1 0x0 REVERT JUMPDEST PUSH32 0x4E487B7100000000000000000000000000000000000000000000000000000000 PUSH1 0x0 MSTORE PUSH1 0x32 PUSH1 0x4 MSTORE PUSH1 0x24 PUSH1 0x0 REVERT JUMPDEST PUSH1 0x0 DUP1 REVERT JUMPDEST PUSH32 0x5472616E7366657220746F2077696E6E6572206661696C656400000000000000 PUSH1 0x0 DUP3 ADD MSTORE POP JUMP JUMPDEST PUSH32 0x4E6F2062616C616E6365206973206C6566740000000000000000000000000000 PUSH1 0x0 DUP3 ADD MSTORE POP JUMP JUMPDEST PUSH32 0x66697273746C7920796F75206861766520746F206465636C6172652077696E6E PUSH1 0x0 DUP3 ADD MSTORE PUSH32 0x6572000000000000000000000000000000000000000000000000000000000000 PUSH1 0x20 DUP3 ADD MSTORE POP JUMP JUMPDEST PUSH32 0x4F6E6C7920546865204D616E616765722063616E20646F207468697320000000 PUSH1 0x0 DUP3 ADD MSTORE POP JUMP JUMPDEST PUSH32 0x4B796120726520616565206268696B6D616E6779610000000000000000000000 PUSH1 0x0 DUP3 ADD MSTORE POP JUMP JUMPDEST PUSH32 0x5472616E7366657220746F206D616E61676572206661696C6564000000000000 PUSH1 0x0 DUP3 ADD MSTORE POP JUMP JUMPDEST POP JUMP JUMPDEST PUSH32 0x436F6E74726163742062616C616E6365206973205A65726F0000000000000000 PUSH1 0x0 DUP3 ADD MSTORE POP JUMP JUMPDEST PUSH2 0xEA8 DUP2 PUSH2 0xC8A JUMP JUMPDEST DUP2 EQ PUSH2 0xEB3 JUMPI PUSH1 0x0 DUP1 REVERT JUMPDEST POP JUMP INVALID LOG2 PUSH5 0x6970667358 0x22 SLT KECCAK256 0x4C PUSH15 0xC38982BBBA41D685BE24C902030D63 0xBD DUP12 BLOCKHASH SWAP5 0xD2 DUP9 0x29 CALLCODE LOG2 SWAP2 SWAP6 LOG0 PUSH4 0xBFF76473 PUSH16 0x6C634300080700330000000000000000 "
				},
				"gasEstimates": {
					"creation": {
						"codeDepositCost": "764000",
						"executionCost": "25065",
						"totalCost": "789065"
					},
					"external": {
						"Manager()": "2533",
						"Participant(uint256)": "4979",
						"Participants()": "2489",
						"SelectWinner()": "infinite",
						"execution()": "2516",
						"generate_profit()": "infinite",
						"getbalance()": "2673",
						"random()": "infinite"
					}
				},
				"methodIdentifiers": {
					"Manager()": "78357e53",
					"Participant(uint256)": "3bb0359a",
					"Participants()": "7f244dd3",
					"SelectWinner()": "bee09890",
					"execution()": "4918f569",
					"generate_profit()": "13c170f2",
					"getbalance()": "4d9b3d5d",
					"random()": "5ec01e4d"
				}
			},
			"storageLayout": {
				"storage": [
					{
						"astId": 3,
						"contract": "contracts/lottery.sol:Lottery",
						"label": "Manager",
						"offset": 0,
						"slot": "0",
						"type": "t_address"
					},
					{
						"astId": 6,
						"contract": "contracts/lottery.sol:Lottery",
						"label": "Participant",
						"offset": 0,
						"slot": "1",
						"type": "t_array(t_address_payable)dyn_storage"
					},
					{
						"astId": 8,
						"contract": "contracts/lottery.sol:Lottery",
						"label": "execution",
						"offset": 0,
						"slot": "2",
						"type": "t_bool"
					}
				],
				"types": {
					"t_address": {
						"encoding": "inplace",
						"label": "address",
						"numberOfBytes": "20"
					},
					"t_address_payable": {
						"encoding": "inplace",
						"label": "address payable",
						"numberOfBytes": "20"
					},
					"t_array(t_address_payable)dyn_storage": {
						"base": "t_address_payable",
						"encoding": "dynamic_array",
						"label": "address payable[]",
						"numberOfBytes": "32"
					},
					"t_bool": {
						"encoding": "inplace",
						"label": "bool",
						"numberOfBytes": "1"
					}
				}
			},
			"userdoc": {
				"kind": "user",
				"methods": {},
				"version": 1
			}
		}
	}
}